:020000040800F2
:10000000000002208D300008DD300008DD300008DF
:10001000DD300008DD300008DD30000800000000A1
:10002000000000000000000000000000DD1A0008D1
:10003000DD300008000000007D1B0008CD1B00081B
:1000400015200008DD300008DD300008DD30000834
:10005000DD300008DD300008DD300008DD3000084C
:10006000DD300008DD300008DD300008DD3000083C
:10007000DD300008DD300008DD300008DD3000082C
:10008000DD300008DD300008DD300008DD3000081C
:10009000DD300008DD300008DD300008DD3000080C
:1000A000DD300008DD300008DD300008DD300008FC
:1000B000DD300008DD300008DD300008DD300008EC
:1000C000DD300008DD300008DD300008DD300008DC
:1000D000DD300008DD300008DD300008DD300008CC
:1000E000DD300008DD300008DD300008DD300008BC
:1000F000DD300008DD300008DD300008DD300008AC
:10010000DD300008DD300008DD300008DD3000089B
:10011000DD300008DD300008DD300008DD3000088B
:10012000DD300008DD300008DD300008DD3000087B
:10013000DD300008DD300008DD300008DD3000086B
:10014000DD300008DD300008DD300008DD3000085B
:10015000DD300008DD300008DD300008DD3000084B
:10016000DD300008DD300008DD300008DD3000083B
:10017000DD300008DD300008DD300008DD3000082B
:08018000DD300008DD3000084D
:1001880000F108034FF0FF32002143608260C36032
:1001980003610160704700BF00230361704700BF1F
:1001A80043689A6810B404688A609A684B6001349E
:1001B800086151609960046010BC704730B40D68E4
:1001C8006B1C11D000F1080200E01A4653681C6845
:1001D800A542FAD204684B600134996051608A6084
:1001E8000861046030BC704702695368F2E700BFD9
:1001F80042688168036910B4916081685C684A60EC
:100208001A68844208BF5960013A0021016110460A
:100218001A6010BC704700BF38B5044601F07EFC78
:10022800A36C002B14DD606A90B104F1240507E08B
:10023800A16C4A1EA264A36C002B09DD606A38B168
:10024800284601F095F90028F2D001F00BFAEFE703
:100258004FF0FF31A16401F083FC01F05FFC626C98
:10026800002A14DD236993B104F1100507E0606CDE
:10027800411E6164626C002A09DD23693BB128468E
:1002880001F076F90028F2D001F0ECF9EFE74FF031
:10029800FF306064BDE8384001F062BC30B40468E7
:1002A8006CB1C368026C45689B18AB42C36024BF3D
:1002B8002346C4600846194630BC02F0B3BF30BCC0
:1002C800704700BF38B51546026C044632B9056858
:1002D800002D28D0A06B421CA26338BD65B9806888
:1002E80002F0A0FFA168206C62680B189342A3601B
:1002F800F0D32168A160EDE7C06802F093FF226C9B
:10030800E368216850421A188A42E26002D26368A0
:100318001918E160022DDDD1A06B0028DAD0A26B9C
:10032800531EA363D6E7406801F0F4F96560D1E78E
:1003380070B504460E4658B301F0F0FBE56B236830
:10034800206CA360691E4FF0FF3205FB003500FBEF
:1003580001330020A06365606264E360A26476B93B
:10036800216919B901F0FCFB012070BD04F11000EE
:1003780001F0FEF80128F5D101F0BCFBF2E704F129
:100388001000FFF7FDFE04F12400FFF7F9FEE9E78E
:1003980001F0BCFBFEE700BFF8B505460E46174660
:1003A800C0B1502001F0AEFC044698B105FB06F040
:1003B800013001F0A7FC206048B1E56326642046BF
:1003C8000121FFF7B5FF84F84D702046F8BD20469F
:1003D80001F0FAFC01F09AFBFEE700BF10B502221B
:1003E8000C460021FFF7D8FF08B1846310BD01F067
:1003F8008DFBFEE72DE9F04784B004460F460192D5
:100408001D4600287DD0002964D0022D68D001F057
:1004180085FBA26BE16B00268A424FF0000804F1CD
:10042800100934D3022D32D0DDF804A0BAF1000F40
:1004380063D0002E39D001F093FB00F0E5FD01F008
:100448006DFB636C013308BFC4F84480A06C431C87
:1004580008BFC4F8488001F083FB02A801A901F095
:10046800D3F8002842D101F059FBA66BE26B964203
:100478001FD001F075FB2046FFF7CEFE00F066FEA8
:10048800012601F04BFBA26BE16B8A42CAD23946C6
:1004980020462A46FFF716FF616A002934D101F089
:1004A8005FFB012004B0BDE8F08702A801F09EF8C8
:1004B800C1E701F055FB4846019901F01FF82046B5
:1004C800FFF7AAFE00F042FE0028D9D101F012FB86
:1004D8000126D6E7036C002B97D001F017FBFEE747
:1004E800E06B012893D001F011FBFEE72046FFF7EF
:1004F80093FE00F02BFE0020D4E701F031FB5046BC
:10050800D0E701F003FBFEE704F1240001F030F826
:100518000128C4D101F0EEFAC1E700BF38B504469E
:1005280030B1456801F0AEF8854204D0002038BDEE
:1005380001F0ECFAFEE7E1680139E16009B1012058
:1005480038BD20460A460B46FFF754FF012038BD48
:1005580070B50646502001F0D5FB0446F0B10025E1
:100568004FF0FF3301228563E263636400F11000FA
:10057800A36465602560A560E560256484F84D6026
:10058800FFF7FEFD04F12400FFF7FAFD2046294697
:100598002A462B46FFF72EFF204670BD01F0B6FA1B
:1005A800FEE700BF2DE9F04104460E46174698467F
:1005B80000282DD000293DD0B8F1020F0FD001F04E
:1005C8007BFB01F0A3FAA26BE16B9142054612D8BE
:1005D8000024284601F0C0FA2046BDE8F081E06B0F
:1005E800012802D001F092FAFEE701F065FB01F064
:1005F8008DFAA36B0546204631464246FFF762FE58
:10060800A36C013307D0A06C421CA2640124E0E76C
:1006180001F07CFAFEE7616A09B90124D9E704F11F
:10062800240000F0A5FF0028F7D00124002FD0D027
:100638003C60CEE7036C002BBED001F067FAFEE702
:100648002DE9F04784B004460F46019299460028E8
:1006580000F09080002964D0002501F05FFAA06BBB
:100668004FF0000804F1240A68BB019E002E70D0E8
:10067800002D52D001F074FA00F0C6FC01F04EFAD9
:10068800616C4B1C08BFC4F84480A26C531C08BFA3
:10069800C4F8488001F064FA02A801A900F0B4FF88
:1006A80000284DD101F03AFAA56B1DB301F058FAB4
:1006B8002046FFF7B1FD00F049FD012501F02EFAB3
:1006C800A06B0028D1D020463946E568FFF7E6FD43
:1006D800B9F1000F41D1A16B23684A1EA26313B977
:1006E80000F0D0FF60602069002846D101F038FA98
:1006F80001202BE001F034FA2368CBB10199504670
:1007080000F0FCFE2046FFF787FD00F01FFD0028E3
:10071800D3D101F0EFF90125D0E702A800F066FF78
:10072800A8E7036C13B101F0F1F9FEE70D4694E771
:1007380001F0F4F9606800F0B9FF01F011FADDE7A3
:100748002046FFF769FD00F001FD002004B0BDE878
:10075800F08701F005FA3046F8E7606AE56000289E
:10076800C4D004F1240000F003FF0028BED001F03B
:10077800C1F9BBE701F0CAF9FEE704F1100000F087
:10078800F7FE0128B2D1F2E770B504460D46B0B1C4
:10079800466800F077FF86420CD0002120462A46A2
:1007A8000B46FFF74DFF012800D070BDE368591CC8
:1007B800E16070BDE068421CE260012070BD01F09C
:1007C800A5F9FEE7F8B504460E46154668B1F1B13D
:1007D80001F072FA01F09AF90746A06B40B9044695
:1007E800384601F0B9F92046F8BD01F08FF9FEE767
:1007F80031462046FFF752FDA16B4A1EA263636C87
:1008080001330AD0606C411C61640124E8E7036C81
:10081800002BDDD001F07AF9FEE72269002AF4D036
:1008280004F1100000F0A4FE0028EED0002DECD05A
:1008380001242C60D4E700BF2DE9F04104460E46A0
:1008480068B1B9B101F038FA01F060F9A56B8046DA
:1008580045B9404601F080F92846BDE8F08101F02D
:1008680055F9FEE7E76820463146FFF717FD0125F1
:10087800E760EEE7036C002BE4D001F047F9FEE7F0
:1008880010B5044630B101F049F9A46B01F068F9DC
:10089800204610BD01F03AF9FEE700BF10B5044646
:1008A80040B101F03BF9A36BE06BC41A01F058F9B1
:1008B800204610BD01F02AF9FEE700BF08B508B1CF
:1008C800806B08BD01F022F9FEE700BF10B50446B1
:1008D80000B31B4B5A6890421FD0D868844221D07D
:1008E80059698C4220D0DA6994421FD0586A8442F0
:1008F8001ED0D96A8C421DD05A6B94421CD0D86B3A
:1009080084421BD0206801F05FFA2046BDE8104001
:1009180001F05ABA01F0FAF8FEE70022002143F884
:100928003210EFE70122F9E70222F7E70322F5E7A1
:100938000422F3E70522F1E70622EFE70722EDE7B5
:10094800802D012090F84C00704700BF80F84C10B3
:10095800704700BF90F84D00704700BF08B528B138
:10096800806BD0F1010038BF002008BD01F0CEF83F
:10097800FEE700BF08B530B1826BC06B131A59424D
:1009880051EB030008BD01F0C1F8FEE7134B1A68EC
:1009980010B482B19A68A2B11A69A2B19A69A2B1D7
:1009A8001A6AA2B19A6AA2B11A6B1AB19A6B92B179
:1009B80010BC7047062203EBC20443F83210606093
:1009C800F6E70122F7E70222F5E70322F3E704221C
:1009D800F1E70522EFE70722EDE700BF802D0120B0
:1009E800164B5A68824215D0D968814217D05A6985
:1009F800824216D0D969814215D05A6A824214D0EF
:100A0800D96A814213D05A6B824212D0D96B814283
:100A180011D070470020002243F830207047012091
:100A2800F9E70220F7E70320F5E70420F3E70520BC
:100A3800F1E70620EFE70720EDE700BF802D012052
:100A480038B504460D4601F069F8636C013313D0DC
:100A5800A16C4B1C0DD001F083F8A36B23B904F1F2
:100A68002400294600F06CFD2046BDE83840FFF719
:100A7800D3BB0022A264EEE700206064E8E700BF71
:100A88000B682DE9F0070446002B38D04868466803
:100A980001F10807BE424E6008BF76680020D6F80C
:100AA8000C8084467668B7424E6008BF7E68F56859
:100AB80008BF4E6005F13403256063602B6C227318
:100AC800A360EB6A2361AB6CC4F818C063612B6B3D
:100AD80093F80090B9F1A50F13D19946002319F89E
:100AE80001AF0133BAF1A50F9BB2F8D09B08A383DD
:100AF80001302034A845D5D1BDE8F0077047184625
:100B0800FAE70023F3E700BF0C4B19685A689042D4
:100B180010B5044648600AD3D8681B68191DFFF74A
:100B28004DFB074801688C4238BF046010BD9868C7
:100B38001A68111DBDE81040FFF740BB30000020C7
:100B4800000000202DE9F84F0A9F0C9E80460D46B4
:100B580092469B46002800F0A280042F02D900F09C
:100B6800D5FFFEE74C2001F0CDF80446002800F040
:100B7800E380002E00F0D38006634FEA8A093046EE
:100B8800A5214A4602F0F0FB2A78236B84F834202A
:100B98000AF1FF3A95F9000003EB8A0121F00706F4
:100BA80060B36A7884F8352095F9013033B3A878B2
:100BB80084F8360095F9021001B3EA7884F83720F2
:100BC80095F90330D3B1287984F8380095F90410E1
:100BD800A1B16A7984F8392095F9053073B1A879FB
:100BE80084F83A0095F9061041B1EA7984F83B2077
:100BF80095F9073013B12D7A84F83C50002104F19F
:100C0800040A84F83D105046E762A764FFF7C4FA67
:100C180004F11800FFF7C0FAC7F10500A0612461CC
:100C28003046646241465A4600F042FF0B9E2060FF
:100C380006B13460424D00F071FF2A69531C2B61E4
:100C48002968002937D0D5F8DC0018B92E68F26A6F
:100C580097422CD205F11406E36AD5F8E000D5F8DE
:100C6800E410421C8B42C5F8E020226403EB8300A9
:100C780088BF334A514606EB800088BFC2F8E4308B
:100C8800FFF78EFA00F06CFFD5F8DC1021B12C4B81
:100C98001A68D06A874205D80120BDE8F88F00F0AD
:100CA80035FFFEE700F026FF0120BDE8F88F2E464D
:100CB80046F8144BD0E72C602B69012B05F114067C
:100CC800CAD13046FFF75CFA05F12800FFF758FA59
:100CD80005F13C00FFF754FA05F15000FFF750FA10
:100CE80005F1780905F16400FFF74AFA05F18C0867
:100CF8004846FFF745FA4046FFF742FA05F1A000DB
:100D0800FFF73EFA05F1B400FFF73AFA05F1C8001B
:100D1800FFF736FAC5F80C90C5F808809CE74FEA4B
:100D28008A09484600F0EEFF0646206300287FF453
:100D380026AF204601F048F84FF0FF30BDE8F88FA5
:100D480030000020F8B50546164C00F0E7FE15B354
:100D58002E1D3046FFF74CFAAB6A1BB105F118009F
:100D6800FFF746FA0F4F314607F1B400FFF718FABC
:100D7800D4F8E820D4F8E000511C431CC4F8E8106B
:100D8800C4F8E03000F0ECFED4F8DC2012B138688A
:100D9800854202D0F8BD2568DAE7BDE8F84000F0E2
:100DA800A9BE00BF3000002010B5044600F0B6FE12
:100DB80024B1E46A00F0D4FE204610BD014B1C6843
:100DC800F7E700BF3000002004292DE9F0410D4667
:100DD80004462ED800F0A2FE002C2DD0A26C95421D
:100DE8001DD023481FD903689C423ED00068C66ABC
:100DF800B54234BF00260126E16A1D4FA5648A4228
:100E080007F11408626908BFE56201EB810308EB8A
:100E18008300C5F105058242A56113D07EB9BDE8FE
:100E2800F04100F09DBE0668A11B4F4257EB01063A
:100E3800E2E700F06BFEFEE70D4B1C68CEE700F022
:100E480059FEECE7251D2846FFF7D2F9D7F8E4103C
:100E5800E26A8A4201D9C7F8E42002EB820308EB70
:100E680083002946FFF79CF9D8E70026C4E700BFAE
:100E78003000002008B570B14369084A934201D098
:100E8800002008BD806A283B9842F9D0D0F10100C3
:100E980038BF002008BD00F039FEFEE7F80000204A
:100EA80070B5044678B1174D2B6898420AD000F007
:100EB80035FE2046FFF7DEFF012807D0BDE8704069
:100EC80000F04EBE70BD00F021FEFEE7261D304644
:100ED800FFF78EF9E06AD5F8E4200B4B904200EB5F
:100EE800800188BFC5F8E40003EB81003146FFF7B5
:100EF80057F92868E26AC16A8A42DFD300F0FAFD2E
:100F0800DCE700BF30000020440000202DE9F0415C
:100F1800044600282FD000F0CFFE00F0F7FD8046F1
:100F28002046FFF7A7FF012806D00026404600F01C
:100F380013FE3046BDE8F081144DD5F8EC30EBB91E
:100F48002A68E16AD66A271D3846B14234BF0026AE
:100F58000126FFF74DF9E36AD5F8E4000C4903EBE5
:100F68008302834201EB8200394688BFC5F8E4302A
:100F7800FFF716F9DAE700F0C9FDFEE705F1A00072
:100F880004F11801FFF70CF90026CFE73000002024
:100F98004400002030B585B00024822200940194DA
:100FA800029403940E480F492346FFF7CBFD01280E
:100FB800054605D00DB105B030BD00F0A7FDFEE730
:100FC80000F00CFC01280546F4D100F09FFD064B0B
:100FD800C3F8DC505C6005B0BDE8304000F012BEDC
:100FE800E5120008B03400083000002008B500F011
:100FF8008DFD40F23003C2F200030022C3F8DC206A
:10100800BDE8084000F074BD40F23003C2F20003AE
:10101800D3F8EC20501CC3F8EC00704710B500F072
:101028007DFD40F23003C2F200035C6800F098FDD9
:10103800204610BD10B500F03FFE00F067FD40F2FD
:101048003003C2F200035C6800F086FD204610BD44
:1010580040F23003C2F20003186970472DE9F047E7
:10106800384CD4F8EC30002B58D16268561C6660B6
:101078006768002F3BD0344E33689F4231D3E06815
:1010880030490268002A46D0CD68EB68DD68686898
:10109800874225D301F11408894605F1040A504610
:1010A800FFF7A6F8A96A05F1180009B1FFF7A0F83B
:1010B800EB6AD4F8E42003EB83009342514608EB33
:1010C800800088BFC9F8E430FFF76AF8E1680B6868
:1010D8000BB3D9F80C50EA68D56868688742DCD247
:1010E8003060D4F8F410F1B10020BDE8F087E3686F
:1010F800186820BBE168A268E260A160D4F8F060DB
:10110800731CC4F8F030E068016889B90E4E4FF0DE
:10111800FF323260B0E74FF0FF30E1E7D4F8F40077
:10112800411CC4F8F41000F057FF0020BDE8F08718
:10113800E268054ED368D868416831609CE700F0E2
:10114800E5FCFEE730000020000000202DE9F84310
:10115800334CD4F8EC3013B900F0D8FCFEE700F0BB
:10116800DDFCD4F8EC00411EC4F8EC10D4F8EC20F7
:10117800002A37D12369002B34D0254604F11409FD
:101188004FF00108D4F8A000254920B3D5F8AC6089
:10119800F668371D06F11800FFF72AF83846FFF7FA
:1011A80027F8F36AD5F8E42003EB83009342394625
:1011B80009EB800088BFC5F8E430FEF7F1FF21682D
:1011C800F26ACB6A9A42DDD3D4F8A000C5F8F88059
:1011D80013490028DAD1D1F8F4204AB9D4F8F840F4
:1011E800012C19D0002400F0BBFC2046BDE8F88390
:1011F800D1F8F430002BF1D00125FFF72FFF08B10B
:10120800C4F8F850D4F8F400411EC4F8F410D4F827
:10121800F420002AF1D1E1E700F06CFCE3E700BF1D
:1012280030000020F8B52C4CD4F8EC305D1CC4F824
:10123800EC5023698B42054616464AD804F16401EE
:101248000122FFF71DFC04F150010746012205EBBE
:101258004010FFF715FC3F1804F13C01012205EB93
:101268004710FFF70DFC3F1804F12801012205EB98
:101278004710FFF705FC3F1804F11401012205EBA4
:101288004710FFF7FDFBC719E168022205EB47107D
:10129800FFF7F6FB3F18A168022205EB4710FFF79E
:1012A800EFFB3F1804F1B401042205EB4710FFF7E8
:1012B800E7FB3F1804F1C80105EB47100322FFF7CD
:1012C800DFFB3C180EB100203060FFF73FFF2046DF
:1012D800F8BD0024F9E700BF30000020164E08B51D
:1012E800344609E0D4F8EC00D4F8B450411CC4F8F2
:1012F800EC10FFF72BFF35B9D6F8E830002BF1D109
:1013080000F0F8FBF8E700F009FCD4F8C020D56835
:10131800281DFEF76DFF2369581E2061D4F8E810D8
:101328004A1EC4F8E82000F01BFC286B00F04CFDB6
:10133800284600F049FDDFE73000002010B518B955
:10134800BDE8104000F0D6BB094BD3F8EC20511C87
:10135800C3F8EC105C681B680419181DFEF748FFF9
:101368002046FFF7D1FBFFF7F1FE0028E8D010BDBB
:101378003000002038B500282BD0002926D0164B85
:101388000268D3F8EC40651CC3F8EC505D689542E0
:1013980002EB01040DD3A2420DD919680460081D9F
:1013A800FEF726FF2046FFF7AFFBFFF7CFFE48B159
:1013B80038BDA24201D9A542EFD30460FFF7C6FEAB
:1013C8000028F5D1BDE8384000F094BB00F09EFB42
:1013D800FEE700F09BFBFEE73000002038B52A4C02
:1013E800D4F8EC30002B48D1C4F8F83022682068D3
:1013F8001168056BA94204D820682168343100F0CF
:1014080003FE23682149186B1F4D142201F0AEFE1C
:1014180020B128682968343100F0F6FDD4F8E400DA
:10142800194A00EB800104EB8103586968B113E0A5
:10143800D4F8E430581EC4F8E400D4F8E41001EB02
:10144800810304EB8300416931B9D2F8E410002923
:10145800EED100F05BFBFEE7D4F8E4200C4B02EB86
:10146800820003EB800202F10801506843688B4256
:10147800536006D0DA68226038BD0121C4F8F8103C
:1014880038BD5B685360F5E7300000209C340008E5
:1014980044000020F8B50446174F00F03FFB002C2D
:1014A80021D0251D2846FEF7A3FEA36A1BB104F12F
:1014B8001800FEF79DFE104E294606F1C800FEF7FB
:1014C8006FFE00F04DFB3868844200D0F8BDD6F8B6
:1014D800DC3063B93169D6F8C8208A4205D0BDE846
:1014E800F840FFF77BBF3C68DBE73360F8BDBDE839
:1014F800F84000F0FFBA00BF3000002038B50D46B4
:1015080080B10E4C21681831FEF758FE206804306F
:10151800FEF76EFE6A1C08D061686818BDE838409E
:10152800FFF7F2BA00F0F2FAFEE7204650F8C82BAF
:10153800111DBDE83840FEF733BE00BF3000002063
:1015480038B50D4670B1094C21681831FEF728FEF0
:1015580020680430FEF74CFE61686818BDE8384022
:10156800FFF7D2BA00F0D2FAFEE700BF3000002041
:10157800C36870B5DC68002C31D004F11806194D29
:101588003046FEF735FED5F8EC00E0B9261D3046AA
:10159800FEF72EFEE16AD5F8E4201348914201EBEC
:1015A800810388BFC5F8E41000EB83003146FEF7DD
:1015B800F7FD2968E26ACB6A9A420ED309490120ED
:1015C800C1F8F80070BD314605F1A000FEF7E8FD4E
:1015D8002968E26ACB6A9A42F0D2002070BD00F016
:1015E80095FAFEE7300000204400002008B530B12D
:1015F800044BD3F8F0205B6880E80C0008BD00F0CD
:1016080085FAFEE73000002038B504460D4620B3C1
:1016180001B300F083FA2968114B481C5A6817D0A7
:10162800D3F8F00023688342636801D09A4202D25B
:10163800D01A814204D8012400F092FA204638BD1D
:10164800891ACA1820462A60FFF7D0FF0024F3E75A
:101658000024F1E700F05AFAFEE700F057FAFEE737
:101668003000002040F23003C2F200030122C3F828
:10167800F820704700B1406C704700BF00B141646A
:10168800704700BF40F23003C2F200031868704789
:10169800054BD3F8DC0028B1D3F8EC00002814BFC0
:1016A80002200120704700BF30000020F8B5044632
:1016B800B0B1174DC36A2A68D06A834210D22E4649
:1016C80003EB830356F8141B6269C86A06EB8303AD
:1016D800C0F105019A42A16103D02A68D06AE0628C
:1016E800F8BD271D3846FEF783FD2B68D5F8E410B2
:1016F800DA6A8A42E26201D9C5F8E42002EB820084
:1017080006EB80003946BDE8F840FEF749BD00BF4A
:101718003000002038B50446E8B1C26A836C9A42AA
:1017280019D0051D2846FEF763FD0B4AA36CD2F8B5
:10173800E410E3628B42C3F1050088BFC2F8E430CD
:1017480003EB8302054BA061294603EB8200BDE849
:101758003840FEF725BD38BD300000204400002089
:10176800F8B50D4C00F0DAF925681DB1BDE8F84070
:1017780000F0F6B9271D384604F11806FEF700FDFB
:101788003046FEF7FDFC0A200C212A46E762266354
:10179800FEF702FE2060E9E72C010020914208B51F
:1017A8004160006105D88169D21A8A420CD30120B0
:1017B80008BD9A4201D29942F9D2074B011DD86A55
:1017C800FEF7FCFC002008BD011D0348006BFEF776
:1017D800F5FC002008BD00BF2C01002000B585B035
:1017E800FFF7BEFF0A4B186870B1002302228DE88C
:1017F8000C0002930393074807494FF48272FFF7DE
:10180800A1F908B105B000BD00F080F9FEE700BFFE
:101818002C0100202D190008B83400082DE9F041EA
:101828000D46804617461E4699B1282000F06AFAF0
:10183800044658B1FFF794FF069BC4F80080A561E1
:10184800E76126626362201DFEF7A6FC2046BDE81C
:10185800F08100F05BF9FEE730B5124D2C6887B0D7
:10186800BCB10391049205903BB11A46204603A9E6
:101878000023FEF797FE07B030BD0193FFF708FF7E
:101888000128019B07D01A46286803A9FEF7B2FD74
:10189800F1E72046EFE728680A9A03A9FEF7AAFDB0
:1018A800E9E700BF2C0100202DE9F0431C4E83B06E
:1018B8004FF00008B1460CE0DD68EC682F68251D84
:1018C8002846FEF795FC2046636A9847E169012996
:1018D8000AD0F36A12491A68002AEDD1086B0B6323
:1018E800C86203B0BDE8F083A26907EB020E0021CD
:1018F800BE4520463A460B4608D9C4F804E02461A0
:10190800D9F82C002946FEF759FCE2E7CDF800800B
:10191800FFF7A2FF0028DCD100F0F8F8FEE700BFCF
:101928002C0100202DE9F043514E87B0B046F36AF0
:101938001A68D2F1010938BF4FF00009B9F1000F58
:1019480063D1D8680568FFF75FFBFFF767FB716B2A
:10195800884207465BD3C8F83400B9F1000F01D1BB
:10196800BD425ED93068E91BFFF76AF8FFF7EEFB66
:1019780008B900F0BFF80022306803A91346FEF743
:101988005FFE0028D3D0059C606910B1201DFEF7CA
:101998002FFCFFF743FB776BB842054632D3039F12
:1019A8007563022F24D0032F1ED0002FE3D1A26924
:1019B800049B204699182A46FFF7F0FE0128DAD141
:1019C800636A20469847E1690129D4D1A56900973F
:1019D8002046049C39462A193B46FFF73DFF00285C
:1019E800C9D100F093F8FEE7204600F0EDF9C2E710
:1019F800049FA76197B12A462046E9192B46FFF7AD
:101A0800CDFEB8E7FFF750FFC9E700259BE7FFF7D2
:101A18004BFFC8F83470FFF799FBACE700F076F895
:101A2800FEE7FFF793FBD8F82C40E368DC68201D3D
:101A3800FEF7DEFBE269012A03D0656A2046A84763
:101A480099E7A169204669183A462B46FFF7A6FE92
:101A58000128F2D14946CDF8009020462A464B4647
:101A6800FFF7FAFE0028E8D100F050F8FEE700BFC3
:101A78002C01002010B5044600F050F86069041CE1
:101A880018BF012400F06CF8204610BD006A7047AA
:101A98009A480068006880F3088862B600DF00BFD3
:101AA800DFF85C02016841F470010160704700BF13
:101AB8004FF0807300E90A0041F64533C0F6000391
:101AC8006FF0020140F80C3C40F8202C40F8241C30
:101AD80044387047054B19680868B0E8F04F80F340
:101AE80009884FF0000080F311887047300000200B
:101AF800704700BF4EF60453CEF200034FF08052F9
:101B08001A60BFF34F8FBFF36F8F7047EFF31180E9
:101B18004FF0500181F311887047002008B5FFF796
:101B2800F5FF40F20403C2F200031A68501C186063
:101B3800BFF34F8FBFF36F8F08BD00BF08B5054BCC
:101B48001868431C02D0FFF7E1FFFEE7FFF7DEFF4E
:101B5800FEE700BF0400002080F31188704700BF33
:101B6800034B18680138186000B17047FFF7F4BFDD
:101B780004000020EFF30980114B1A681EF0100FC3
:101B880008BF20ED108A20E9F04F10602DE90840C9
:101B98004FF0500080F31188FFF720FC4FF0000051
:101BA80080F31188BDE8084019680868B0E8F04F6C
:101BB8001EF0100F08BFB0EC108A80F30988704738
:101BC8003000002008B5FFF7A1FFFFF747FA30B152
:101BD8004EF60453CEF200034FF080521A600020F4
:101BE800BDE80840FFF7B8BF4EF214024EF21003EA
:101BF800CEF20002CEF2000341F63F7107201160D9
:101C08001860704710B54FF46443CEF2000382B0F9
:101C18001A7827480192FF2119701C788DF8034023
:101C28009DF803209DF8033002F05001072401704D
:101C38001906446038D5062300E00B469DF80310CA
:101C48004C00E2B28DF803209DF80340591E22068D
:101C5800F3D41B0203F4E062019C42604FF4644039
:101C6800CEF200004EF62053CEF20003E2B202702C
:101C7800196841F470041C60186840F070421A60DA
:101C8800FFF7B2FF0B4B00241C60FFF709FF4EF66D
:101C98003471CEF20001086840F040420A60FFF754
:101CA800F7FE204602B010BD4FF4E062D4E700BF53
:101CB800640100200400002008B5EFF305810F2916
:101CC8000BD80D4B4EF60C52CEF200025B68106832
:101CD80000F4E06199420CD808BD4EF2F032CEF221
:101CE8000002054B885C19788142EBD9FFF70EFF9B
:101CF800FEE7FFF70BFFFEE76401002008ED00E0B8
:101D080088ED00E0F8B50446FFF77EF92A4B9A689B
:101D1800A2B92A4D5A6003F1140121F0070142F6D5
:101D2800F830C0F2010005F69436C5F8942B01226C
:101D38001960C5F8980B48600E609A60002C37D07F
:101D4800083462071CBF24F00704083442F6F63052
:101D5800611EC0F2010081422CD81B68164D01E0BB
:101D68001D46334659688C4202D91E68002EF7D1A9
:101D7800134A93421ED02E681A68081B083610288A
:101D88002A600DD91F190C4A78605C607D6800E0F4
:101D98001A46136859688D42FAD83B602146176085
:101DA80008480268531A0360FFF7D0F93046F8BDB7
:101DB8002646F9E70026F7E76C010020E421012018
:101DC800782D01200800002038B50546B8B1FFF786
:101DD8001BF9A5F1080055F8044C094A00E01A4619
:101DE800136859688C42FAD8064945F8083C0B68CC
:101DF80010601C190C60BDE83840FFF7A7B938BD62
:101E08006C0100200800002040F20803C2F2000321
:101E180018687047704700BF08B50E4C4FF4FA7544
:101E28004FF44060C4F202004FF4805100F0C2FD4C
:101E380025602368002BFCD14FF44060C4F20200F7
:101E48004FF4805100F0B8FD024805602168002970
:101E5800FCD1E5E7C02D012040F21C03C2F20003CB
:101E68002DE9F04F196844F6D352C1F26202A2FB81
:101E780001304EF210054FF46D46CEF20005870989
:101E8800CEF2000600247B1EF0224FF007098BB02B
:101E98006B60082086F823200121AC60C5F800900B
:101EA80000F008FB4FF44060012503276946C4F29F
:101EB80002004FF4704600968DF804508DF80640E5
:101EC8008DF805708DF80740264600F099FC2946E4
:101ED8004FF4003000F018FBC4F2020628462946E9
:101EE80000F0E8FA4FF002084FF00C0B3046694654
:101EF800CDF800B08DF805708DF804808DF8064097
:101F08008DF807504FF4884A00F07AFC3046414675
:101F18004A4600F05FFDC4F2000A4A463046394698
:101F280000F058FD4FF4E133504602A90293ADF892
:101F38000C40ADF80E40ADF81040ADF81440ADF8C7
:101F480012B000F0C9FD5046294600F05BFE294654
:101F58004FF0005000F0D8FA2846294600F0AAFAB7
:101F6800204606A906940794CDF8248000F084FF43
:101F780030223046694600928DF804708DF807408B
:101F880000F03EFC2046294600F098FF20462146F6
:101F9800A14600F0D9FF0BB0BDE8F08F054B1A68D9
:101FA80012B11868411E1960034B1A68501C18605A
:101FB800704700BFC02D0120C42D012082B0044A03
:101FC8000190019B136010680028FCD102B0704793
:101FD800C02D0120704700BF4FF4406008B5C4F21F
:101FE80002004FF4005100F0E5FC054B1A6812B1ED
:101FF8001868411E1960034B1A68501C186008BD08
:10200800C02D0120C42D0120FEE700BF704700BF8E
:102018004FF46D42CEF200024FF46053D2F88810AC
:10202800C4F2020341F47000C2F888001968002263
:1020380041F0010018609A60186843F2100120F01E
:10204800847020F48030C2F2004118605960196829
:1020580082B021F480201860DA60009201921A6838
:1020680042F480311960184603E00099B1F5A06F79
:1020780009D0036803F40032019200994B1C0093C5
:10208800019A002AF1D04FF46050C4F202000368AC
:1020980013F400320DD001210191019801280CD0D0
:1020A8004FF46D43CEF200034FF00061996002B027
:1020B8007047019201980128F2D14FF46053C4F29D
:1020C80002034FF4E042196CC4F2000241F0805060
:1020D8001864116841F4804010609A689A609968A1
:1020E80041F400409860996845F2084241F4A050D4
:1020F800C0F2407298605A60196841F080721A60A4
:10210800184601684FF460538A01C4F20203F8D5F7
:102118004FF47052C4F2020240F2056010609968F0
:1021280021F003029A60986840F0020199609A6869
:1021380002F00C000828FAD1B2E700BF4FF4605350
:10214800C4F202039A6802F00C00042812D008288E
:1021580015D04FF41051C0F2F4014FF46050C4F29E
:102168000200184B8268C2F303101A5C21FA02F1CC
:10217800196170474FF49051C0F27A01EDE7586841
:102188005A6810F4800F586802F03F0114BF4FF4EA
:1021980090534FF41053C0F388124FF4605014BF9B
:1021A800C0F27A03C0F2F403C4F20200B3FBF1F305
:1021B80003FB02F14268C2F30143581C4200B1FB21
:1021C800F2F1CAE70C000020C0340008000000202B
:1021D8003000002030000020C82D01204FF460534B
:1021E800C4F202030022196841F0010018609A60E5
:1021F800186843F2100120F0847020F48030C2F295
:10220800004118605960196821F480201860DA606C
:10221800704700BF43F60203C4F2020300221A709B
:102228001870704782B04FF4605200230193C4F2D3
:102238000202106883030CD5019A511C0191019B7D
:102248004FF46053C4F202031868C0F3404002B070
:10225800704701994B1C01930198B0F5A06FE8D124
:10226800EEE700BF4FF46053C4F202031A6822F08D
:10227800F80141EAC0001860704700BF0023C4F2AB
:1022880047231860704700BF43F67003C4F2020387
:10229800002201281A701A7004D0042801D10520E0
:1022A80018707047187070474FF46863C4F247237A
:1022B8001860704730B40143029D41EA82125B08FE
:1022C8004FF4605442EA0565591EC4F2020445EA17
:1022D8000140606030BC70476023C4F24723186037
:1022E800704700BF4FF460538001C4F2020340EA14
:1022F8000171C3F8841070476823C4F2472318603B
:10230800704700BF4C23C4F247231860704700BFD2
:102318004FF46053C4F202039A6822F0EC6210434F
:1023280001439960704700BF4FF46053C4F2020341
:102338009A6822F07842104301439960704700BFC1
:102348004FF46053C4F202039A6822F00301084371
:10235800986070474FF46053C4F20203986800F025
:102368000C0070474FF46053C4F202039A6822F0DD
:10237800F0010843986070474FF46053C4F20203B9
:102388009A6822F4E0510843986070474FF460530C
:10239800C4F202039A6822F4604141EAC0009860DE
:1023A800704700BF4FF46053C4F2020310B49A6838
:1023B80002F00C01042922D0082926D04FF410522B
:1023C800C0F2F40202604FF46053C4F202032149E0
:1023D8009C68C4F303140C5D22FA04F242609C6802
:1023E800C4F382240C5D22FA04F484609B68C3F36E
:1023F8004233C95C22FA01F2C26010BC70474FF444
:102408009052C0F27A020260DDE75C68596814F401
:10241800800F5C6801F03F0214BF4FF490534FF4F3
:102428001053C4F388114FF4605414BFC0F27A03F8
:10243800C0F2F403C4F20204B3FBF2F303FB01F2AB
:102448006168C1F301435C1C6100B2FBF1F20260F8
:10245800B9E700BF2000002000F44073B3F5407FC7
:102468000CD14FF46053C4F2020320F070419A6813
:1024780021F4407122F4F812114399604FF460532B
:10248800C4F2020300051A6F010D11431967704762
:1024980040F63C63C4F24723186070474FF4646306
:1024A800C4F24723186070474FF4AE73C4F2472351
:1024B800186070474FF46053C4F202031A6B19B9DD
:1024C80022EA00001863704710431863704700BF82
:1024D8004FF46053C4F202035A6B19B922EA0000A0
:1024E8005863704710435863704700BF4FF46053F8
:1024F800C4F202039A6B19B922EA00009863704784
:1025080010439863704700BF4FF46053C4F202034E
:102518001A6C19B922EA000018647047104318644D
:10252800704700BF4FF46053C4F202035A6C19B9E4
:1025380022EA00005864704710435864704700BF8F
:102548004FF46053C4F202031A6919B922EA000071
:102558001861704710431861704700BF4FF460530B
:10256800C4F202035A6919B922EA00005861704797
:1025780010435861704700BF4FF46053C4F2020320
:102588009A6919B922EA0000986170471043986166
:10259800704700BF4FF46053C4F202031A6A19B9B6
:1025A80022EA00001862704710431862704700BFA3
:1025B8004FF46053C4F202035A6A19B922EA0000C0
:1025C8005862704710435862704700BF4FF4605319
:1025D800C4F202031A6D19B922EA0000186570479F
:1025E80010431865704700BF4FF46053C4F20203EC
:1025F8005A6D19B922EA00005865704710435865AA
:10260800704700BF4FF46053C4F202039A6D19B9C2
:1026180022EA00009865704710439865704700BF2C
:102628004FF46053C4F202031A6E19B922EA00008B
:102638001866704710431866704700BF4FF4605320
:10264800C4F202035A6E19B922EA000058667047AC
:1026580010435866704700BF43F60D03C4F20203E7
:102668001A7819B922EA00001870704710431870D8
:10267800704700BF4309012B0ED04FF46051C4F2DC
:102688000201022B0CBF096F496F00F01F0021FAED
:1026980000F303F0010070474FF46052C4F20202E5
:1026A8001168F2E74FF46053C4F202035A6F42F024
:1026B80080705867704700BF4FF46053C4F202033C
:1026C800D96808420CBF00200120704743F60E036A
:1026D800C4F202031870704708B50023C4F202035D
:1026E80098423CD04FF48061C4F20201884240D045
:1026F8004FF40062C4F20202904244D04FF44063A7
:10270800C4F20203984248D04FF48051C4F2020147
:1027180088424CD04FF4A052C4F20202904250D0EA
:102728004FF4C053C4F20203984254D04FF4E0511E
:10273800C4F20201884258D04FF40052C4F2020297
:10274800904200D008BD01214FF48070FFF7F8FED9
:102758004FF480700021BDE80840FFF7F1BE01206A
:102768000146FFF7EDFE01200021BDE80840FFF714
:10277800E7BE02200121FFF7E3FE02200021BDE8A9
:102788000840FFF7DDBE04200121FFF7D9FE042031
:102798000021BDE80840FFF7D3BE08200121FFF75C
:1027A800CFFE08200021BDE80840FFF7C9BE102071
:1027B8000121FFF7C5FE10200021BDE80840FFF702
:1027C800BFBE20200121FFF7BBFE20200021BDE86D
:1027D8000840FFF7B5BE40200121FFF7B1FE4020B9
:1027E8000021BDE80840FFF7ABBE80200121FFF7BC
:1027F800A7FE80200021BDE80840FFF7A1BE00BF6A
:102808002DE9F00F0E6884B00022884613464FF079
:10281800010B00968A4607E0DDF80490A14539D0FF
:102828004B1CAA1C102B54D0009E0BFA03F5591C04
:1028380005EA060C0BFA01F42640AC45019602F1B4
:102848000205E9D1032606FA02F907689AF8048016
:102858006FEA09094E463E4006600768CDF80C90BD
:1028680008FA02F908F1FF3849EA0709B8F1010F37
:10287800C0F8009031D9C368039F9AF807C0DDF803
:1028880004903B40C360C3680CFA02F21A43A145A6
:10289800C260C5D1032304689AF80420AB40DB4327
:1028A8001C400460046802FA05FC013A4CEA04047E
:1028B800012A046033D9C2689AF807401340C360FC
:1028C800C26804FA05F31343C3604B1CAA1C102BFF
:1028D800AAD104B0BDE8F00F7047D0F80880039E75
:1028E8009AF806709AF8059006EA0808C0F8088071
:1028F800D0F8088009FA02F949EA0808C0F80880FF
:10290800D0F8048028EA0C0CC0F804C0D0F8049071
:1029180007FA03F39FB247EA09034360ABE7866807
:102928009AF805709AF806201E408660846807FAAF
:1029380005FC4CEA040686604768019E27EA0607FC
:102948004760446802FA01F292B222434260B2E759
:1029580000234FF6FF720260037143718371C371E4
:10296800704700BF82B04FF480330193019A41EA67
:1029780002030193019AC261C1610199C161C369EE
:102988000193C069019002B0704700BF0369194202
:102998000CBF002001207047006980B2704700BF5B
:1029A800436919420CBF002001207047406980B27A
:1029B800704700BF01837047418370470AB941835C
:1029C80070470183704700BF4161704743695940B0
:1029D80041617047CB08083301F0070130B4890022
:1029E80050F823500F2404FA01F425EA040440F8AF
:1029F800234050F8234002FA01F2144340F82340E0
:102A080030BC704708B54FF48053C4F201039842B4
:102A180028D04FF48841C4F2000188422CD04FF4EA
:102A28009042C4F20002904232D04FF49843C4F26C
:102A38000003984238D04FF4A041C4F20001884204
:102A48003ED04FF4A052C4F20102904200D008BD1B
:102A580020200121FFF7ACFD20200021BDE808401F
:102A6800FFF7A6BD10200121FFF7A2FD10200021CD
:102A7800BDE80840FFF79CBD01214FF40030FFF787
:102A880089FD4FF400300021BDE80840FFF782BD02
:102A980001214FF48020FFF77DFD4FF480200021B5
:102AA800BDE80840FFF776BD01214FF40020FFF78D
:102AB80071FD4FF400200021BDE80840FFF76ABD12
:102AC80001214FF48010FFF765FD4FF480100021BD
:102AD800BDE80840FFF75EBD028ACB8822F4405269
:102AE8001204F0B5120C04461A4348890F898E88DF
:102AF8000D4689892282A38923F4B05222F00C035F
:102B08003E431A040643B3B2100C43EA0006A681FA
:102B1800A28A22F4407003041E0C0E4385B0A682DC
:102B28006846FFF73FFC4FF48051C4F201018C4224
:102B38002CD04FF4A052C4F20102944226D0A089AE
:102B4800029B06B2002E26DB2D6803EB830101EB06
:102B58008102AB00B2FBF3F148F21F53A089C5F222
:102B6800EB13A3FB0156720900B264251601002875
:102B780002FB151118DB0D013235A3FB0553C3F316
:102B88004312324391B2218105B0F0BDA089039B65
:102B980006B2002ED8DA286803EB830606EB860512
:102BA8004200B5FBF2F1D7E7C8003230A3FB0013AF
:102BB800C3F342123243E5E700234FF416520C21C7
:102BC80002608380C380038141818381704700BF95
:102BD8000A88038A30B44D888C88C9882A4323F42C
:102BE800706322431B040A4392B2190C42EA0103A0
:102BF800038230BC704700BF00230380438083807A
:102C0800C3807047838929B923F400510A04130C3F
:102C18008381704799B241F400528281704700BFA6
:102C2800038B03F47F420283038B9AB2114301831F
:102C3800704700BF838919B959044A0C82817047CB
:102C48006FEA43436FEA53418AB28281704700BFFB
:102C5800838A29B923F400610A04130C838270471C
:102C680099B241F400628282704700BFC905CA0D5B
:102C7800828070478088C105C80D7047038A23F099
:102C88000F0213041A0C0282038A9AB211430182BA
:102C9800704700BF838929B923F002010A04130C85
:102CA8008381704799B241F002028281704700BF68
:102CB800838923F4006213041A0C828183899AB2EF
:102CC80011438181704700BF038A23F02002130457
:102CD8001A0C0282038A9AB211430182704700BF1C
:102CE800038A29B923F480410A04130C038270472C
:102CF80099B241F480420282704700BF838999B239
:102D080041F0010282817047838A29B923F00801C2
:102D18000A04130C8382704799B241F00802828238
:102D2800704700BF038BDAB20283038B9AB242EA80
:102D380001210183704700BF838A29B923F020014C
:102D48000A04130C8382704799B241F020028282F0
:102D5800704700BF838A29B923F010010A04130CB5
:102D68008382704799B241F010028282704700BF97
:102D7800838A23F0040213041A0C8282838A9AB28B
:102D880011438182704700BF838A29B923F0020169
:102D98000A04130C8382704799B241F002028282BE
:102DA800704700BF838A9BB21AB923EA0101818266
:102DB800704719438182704701F01F0310B4C1F3B3
:102DC80042110124A14204FA03F30DD002290DD0C7
:102DD80014302AB9026822EA0301016010BC704766
:102DE800026813430360F9E70C30F2E71030F0E7AC
:102DF800038819420CBF002001207047C9438AB2DA
:102E08000280704710B4C1F34213012401F01F027D
:102E1800A34204FA02F214D0022B0CBF038A838A5D
:102E28009BB21340008882B24BB1090A012303FA0E
:102E380001F010420CBF0020012010BC704718465A
:102E4800FBE783899BB21340ECE700BF090A012323
:102E580003FA01F2D1438BB20380704708B5012110
:102E68004FF00050FFF796FB4FF000500021BDE8EF
:102E78000840FFF78FBB00BF70B491E860004FF4C3
:102E8800E8438C68CA68C4F2000346EA05010C43AB
:102E98001E6840F6FE7505FA00F5224326EA050588
:102EA80002FA00F045EA0001196070BC704700BFE3
:102EB8000023036043608360C36070474FF4E843B6
:102EC800C4F200031A6831B9012101FA00F022EABC
:102ED80000021A607047012101FA00F010431860DF
:102EE800704700BF4FF4E843C4F2000300095A6872
:102EF80031B9012101FA00F022EA00025A60704754
:102F0800012101FA00F01043586070474FF4E8437C
:102F1800C4F200035A6818B922F0030058607047D9
:102F280042F00301596070474FF4E843C4F20003CC
:102F380001FA00F122B91A6822EA01011960704702
:102F4800186801431960704782B04FF4E843C4F22F
:102F58000003002201920193019B08331818019085
:102F6800019A116002B0704782B04FF4E843C4F28E
:102F78000003002201920193019B14331818019059
:102F8800019A116002B0704747F220430828C4F242
:102F980000030CBF42EA012142EA0141C1507047D7
:102FA80082B04FF4E8430022C4F200030192019377
:102FB80001992C3101EB90000190019B1A6890B2A5
:102FC80002B070474FF4E843C4F200031A6839B9F5
:102FD8004FF4805101FA00F022EA00021A607047AB
:102FE8004FF4805101FA00F010431860704700BF99
:102FF8004FF4E843C4F2000301FA00F122B91A6859
:1030080022EA010119607047186801431960704786
:103018004FF4E843C4F2000301FA00F1586B01428F
:103028000CBF0020012070474FF4E843C4F20003AE
:1030380001FA00F1596370474FF4E843C4F2000302
:1030480001FA00F11A68586B084003D011420CBF0E
:1030580000200120704700BF4FF4E843C4F200038A
:1030680001FA00F15963704708B5FEF7F5FE4FF411
:103078004060C4F202004FF40041FFF79BFCFEF7EA
:10308800CBFE00BF002100F004B80D4B5B58435045
:1030980004310C480C4B42189A42FFF4F6AF0B4A25
:1030A80000F003B8002342F8043B094B9A42FFF4AE
:1030B800F9AFFEF7ADFF00F00FF8FFF7D5FF704747
:1030C800C03400080000002030000020300000203C
:1030D800C82D0120FFF7FEBFF8B5204F204C381B44
:1030E800871017D07A1E2368012502F00106984739
:1030F800AF420FD02EB154F8041F02258847AF42C3
:1031080008D0606880470235A268261D90470834B9
:10311800AF42F6D1134F144CFEF75CFF3B1B9F10D8
:1031280018D07D1E216805F0010601258847AF42A9
:1031380011D02EB154F8040F02258047AF420BD0AE
:10314800626890470235A368261D98470834AF4245
:10315800F6D1F8BDF8BDF8BDF8BD00BFC034000811
:10316800C0340008C0340008C0340008032AF0B492
:1031780031D941EA00039C072ED106680F68151F54
:10318800031D0C1DBE42C5F3800C24D1032D2A4615
:103198001FD9BCF1000F08D025681E6821461846C3
:1031A80004340433AE4211D015E018462146236892
:1031B8000468051D0E1D9C420DD128463146356810
:1031C8000668043A031D0C1DAE4204D1043A032AD2
:1031D800EBD8214618461AB303780C78A3420AD1D3
:1031E800551E0022EB0714D510F8013F11F8014FC6
:1031F8000122A3420DD0181B10E010F8013F11F86E
:10320800014FA342F7D110F8013F11F8014FA34233
:10321800F1D1AA4202F10202EFD10020F0BC7047BE
:103228001046FBE70F2A2DE9F00340F2958041EAAA
:1032380000039B0740F092800C6804604D6845606D
:103248008E68A2F110038660CC681D460F2DC460FD
:10325800C3F3001601F1100400F1100322D966B17E
:1032680026681E6066685E60A6689E60E668103D17
:10327800DE60103410330F2D14D926681E6066687E
:103288005E60A6689E60E668DE6026691E61666903
:103298005E61A6699E61E669203DDE6120342033C7
:1032A8000F2DEAD8A2F1100323F00F0402F00F0348
:1032B8001034032B00EB0408214451D9A3F104096D
:1032C8000B464FEA990901EB890C53F8046BC1EBE3
:1032D8000C0544460CF1040C634544F8046BC5F333
:1032E800800512D02DB153F8045B634544F8045BA4
:1032F8000BD01E46254656F8047B45F8047B5F68CC
:10330800331D67602C1D6345F3D109F101039C004F
:10331800091902F003024444DAB123460D7803F890
:10332800015BA218E4431419934204F0010410D07D
:103338002CB111F8014F03F8014B934209D04D7895
:103348001C4604F8015B8D785D70631C0231934262
:10335800F5D1BDE8F00370470446DDE70446DCE735
:1033680044461A46D8E700BFF0B48407034600F085
:103378008E80541E002A00F08880E507CEB211D452
:103388001A46671E02F8016B1346154692070FD0BE
:10339800002C7AD003F8016B9A073C461D4607D0EB
:1033A800013CEDE7034603F8016B9A071D46F7D188
:1033B800032C52D9CEB246EA06270F2C47EA074318
:1033C8002DD9A4F1100217460F2FC2F300162B6057
:1033D8006B60AB60EB6005F1100216D93EB1103F8F
:1033E800136053609360D36010320F2F0DD9203FC4
:1033F80002F11006136053609360D3601361536148
:103408009361D36120320F2FF1D8A4F1100222F07A
:103418000F0204F00F041032032C15441DD9271F86
:103428003E462A46032E42F8043BC7F380070DD9CF
:1034380027B1043E032E42F8043B07D91746083E3D
:1034480047F8043B53603A1D032EF7D8231F23F097
:103458000302131D04F00304ED18B4B12B46C9B2DE
:1034680003F8011B2C19ED436219A34202F0010570
:103478000BD01DB103F8011BA34206D01A4602F86F
:10348800011B5970531CA342F8D1F0BC7047054684
:1034980014468DE7A5A5A5A5A5A5A5A5A5A5A5A59A
:1034A800A5A5A5A5A5A5A5A549444C4500000000CE
:0834B800546D7220537663008D
:1034C000FFFFFFFFAAAAAAAAF82B01000000000034
:1034D000000000000102030406070809007A030A3D
:1034E00000000000010203040102030406070809AA
:040000050800308D32
:00000001FF
