:020000040800F2
:1000000000000220E13400083135000831350008D5
:100010003135000831350008313500080000000096
:100020000000000000000000000000006D1B000840
:1000300031350008000000000D1C00085D1C0008A0
:1000400031350008313500083135000831350008F8
:1000500031350008313500083921000831350008F4
:1000600031350008313500083135000831350008D8
:1000700031350008313500083135000831350008C8
:1000800031350008313500083135000831350008B8
:1000900031350008313500083135000831350008A8
:1000A0003135000831350008313500083135000898
:1000B0003135000831350008313500083135000888
:1000C0003135000831350008313500083135000878
:1000D0003135000831350008313500083135000868
:1000E0003135000831350008313500083135000858
:1000F0003135000831350008313500083135000848
:100100003135000831350008313500083135000837
:100110003135000831350008313500083135000827
:100120003135000831350008313500083135000817
:100130003135000831350008313500083135000807
:1001400031350008313500083135000831350008F7
:1001500031350008313500083135000831350008E7
:1001600031350008313500083135000831350008D7
:1001700031350008313500083135000831350008C7
:0801800031350008313500089B
:1001880010B5054C237833B9044810B10448AFF3CF
:1001980000800121217010BD6804002000000000CB
:1001A800343C000808B5064B1BB106480649AFF3B6
:1001B80000800648016811B1054A02B1904708BDA0
:1001C80000000000343C00086C0400206404002097
:1001D80000000000154B002B08BF134B9D46A3F5EC
:1001E800803A00218B460F461348144A121A03F02E
:1001F80017FB0F4B002B00D098470E4B002B00D05D
:1002080098470020002104460D4600200C49002292
:10021800002303F08BF903F017FA2046294603F070
:1002280009F903F0D9F900BF000008000000000038
:1002380000000000000000006804002018320120BF
:100248000136000800F108034FF0FF320021436037
:100258008260C36003610160704700BF00230361CF
:10026800704700BF43689A6810B404688A609A6847
:100278004B600134086151609960046010BC70479C
:1002880030B40D686B1C11D000F1080200E01A466A
:1002980053681C68A542FAD204684B60013499601F
:1002A80051608A600861046030BC70470269536815
:1002B800F2E700BF42688168036910B49160816801
:1002C8005C684A601A68844208BF5960013A002194
:1002D800016110461A6010BC704700BF38B504466B
:1002E80001F064FCA36C002B14DD606A90B104F18A
:1002F800240507E0A16C4A1EA264A36C002B09DD4B
:10030800606A38B1284601F07BF90028F2D001F084
:10031800F1F9EFE74FF0FF31A16401F069FC01F05A
:1003280045FC626C002A14DD236993B104F11005C1
:1003380007E0606C411E6164626C002A09DD236974
:100348003BB1284601F05CF90028F2D001F0D2F95F
:10035800EFE74FF0FF306064BDE8384001F048BC7B
:1003680030B404686CB1C368026C45689B18AB4232
:10037800C36024BF2346C4600846194630BC03F056
:10038800ADB930BC704700BF38B51546026C04469D
:1003980032B90568002D28D0A06B421CA26338BD75
:1003A80065B9806803F09AF9A168206C62680B1837
:1003B8009342A360F0D32168A160EDE7C06803F021
:1003C8008DF9226CE368216850421A188A42E2606B
:1003D80002D263681918E160022DDDD1A06B0028F4
:1003E800DAD0A26B531EA363D6E7406801F0DAF9AE
:1003F8006560D1E770B504460E4658B301F0D6FBE8
:10040800E56B2368206CA360691E4FF0FF3205FB83
:10041800003500FB01330020A06365606264E3607F
:10042800A26476B9216919B901F0E2FB012070BD17
:1004380004F1100001F0E4F80128F5D101F0A2FB65
:10044800F2E704F11000FFF7FDFE04F12400FFF7C6
:10045800F9FEE9E701F0A2FBFEE700BFF8B50546A3
:100468000E461746C0B1502001F0A0FC044698B1D2
:1004780005FB06F0013001F099FC206048B1E56306
:10048800266420460121FFF7B5FF84F84D70204609
:10049800F8BD204601F0ECFC01F080FBFEE700BF50
:1004A80010B502220C460021FFF7D8FF08B184637B
:1004B80010BD01F073FBFEE72DE9F04784B0044658
:1004C8000F4601921D4600287DD0002964D0022DD8
:1004D80068D001F06BFBA26BE16B00268A424FF0FB
:1004E800000804F1100934D3022D32D0DDF804A03D
:1004F800BAF1000F63D0002E39D001F079FB00F07B
:10050800E5FD01F053FB636C013308BFC4F8448078
:10051800A06C431C08BFC4F8488001F069FB02A81E
:1005280001A901F0B9F8002842D101F03FFBA66B00
:10053800E26B96421FD001F05BFB2046FFF7CEFE30
:1005480000F062FE012601F031FBA26BE16B8A42EA
:10055800CAD2394620462A46FFF716FF616A0029A3
:1005680034D101F045FB012004B0BDE8F08702A8B2
:1005780001F084F8C1E701F03BFB4846019901F01E
:1005880005F82046FFF7AAFE00F03EFE0028D9D164
:1005980001F0F8FA0126D6E7036C002B97D001F09A
:1005A800FDFAFEE7E06B012893D001F0F7FAFEE7C9
:1005B8002046FFF793FE00F027FE0020D4E701F065
:1005C80017FB5046D0E701F0E9FAFEE704F12400F2
:1005D80001F016F80128C4D101F0D4FAC1E700BF30
:1005E80038B5044630B1456801F094F8854204D026
:1005F800002038BD01F0D2FAFEE7E1680139E16078
:1006080009B1012038BD20460A460B46FFF754FFC2
:10061800012038BD70B50646502001F0C7FB0446DE
:10062800F0B100254FF0FF3301228563E263636474
:1006380000F11000A36465602560A560E56025648D
:1006480084F84D60FFF7FEFD04F12400FFF7FAFD82
:10065800204629462A462B46FFF72EFF204670BD26
:1006680001F09CFAFEE700BF2DE9F04104460E4672
:100678001746984600282DD000293DD0B8F1020F22
:100688000FD001F06DFB01F089FAA26BE16B91428A
:10069800054612D80024284601F0A6FA2046BDE8EF
:1006A800F081E06B012802D001F078FAFEE701F052
:1006B80057FB01F073FAA36B0546204631464246C4
:1006C800FFF762FEA36C013307D0A06C421CA26442
:1006D8000124E0E701F062FAFEE7616A09B9012442
:1006E800D9E704F1240000F08BFF0028F7D001249B
:1006F800002FD0D03C60CEE7036C002BBED001F0B9
:100708004DFAFEE72DE9F04784B004460F46019202
:100718009946002800F09080002964D0002501F057
:1007280045FAA06B4FF0000804F1240A68BB019E4B
:10073800002E70D0002D52D001F05AFA00F0C6FCFD
:1007480001F034FA616C4B1C08BFC4F84480A26CF9
:10075800531C08BFC4F8488001F04AFA02A801A94E
:1007680000F09AFF00284DD101F020FAA56B1DB3C7
:1007780001F03EFA2046FFF7B1FD00F045FD0125E6
:1007880001F014FAA06B0028D1D020463946E5685C
:10079800FFF7E6FDB9F1000F41D1A16B23684A1EAE
:1007A800A26313B900F0B6FF60602069002846D143
:1007B80001F01EFA01202BE001F01AFA2368CBB1F0
:1007C8000199504600F0E2FE2046FFF787FD00F051
:1007D8001BFD0028D3D101F0D5F90125D0E702A8E7
:1007E80000F04CFFA8E7036C13B101F0D7F9FEE75E
:1007F8000D4694E701F0DAF9606800F09FFF01F018
:10080800F7F9DDE72046FFF769FD00F0FDFC002061
:1008180004B0BDE8F08701F0EBF93046F8E7606A0C
:10082800E5600028C4D004F1240000F0E9FE0028A7
:10083800BED001F0A7F9BBE701F0B0F9FEE704F17B
:10084800100000F0DDFE0128B2D1F2E770B50446D1
:100858000D46B0B1466800F05DFF86420CD000211D
:1008680020462A460B46FFF74DFF012800D070BDF1
:10087800E368591CE16070BDE068421CE260012039
:1008880070BD01F08BF9FEE7F8B504460E46154633
:1008980068B1F1B101F064FA01F080F90746A06B84
:1008A80040B90446384601F09FF92046F8BD01F0EA
:1008B80075F9FEE731462046FFF752FDA16B4A1E47
:1008C800A263636C01330AD0606C411C616401242B
:1008D800E8E7036C002BDDD001F060F9FEE7226940
:1008E800002AF4D004F1100000F08AFE0028EED0AF
:1008F800002DECD001242C60D4E700BF2DE9F04195
:1009080004460E4668B1B9B101F02AFA01F046F979
:10091800A56B804645B9404601F066F92846BDE812
:10092800F08101F03BF9FEE7E76820463146FFF722
:1009380017FD0125E760EEE7036C002BE4D001F01A
:100948002DF9FEE710B5044630B101F02FF9A46B7C
:1009580001F04EF9204610BD01F020F9FEE700BF76
:1009680010B5044640B101F021F9A36BE06BC41A3D
:1009780001F03EF9204610BD01F010F9FEE700BF76
:1009880008B508B1806B08BD01F008F9FEE700BFA3
:1009980010B5044600B31B4B5A6890421FD0D86864
:1009A800844221D059698C4220D0DA6994421FD000
:1009B800586A84421ED0D96A8C421DD05A6B944220
:1009C8001CD0D86B84421BD0206801F051FA204615
:1009D800BDE8104001F04CBA01F0E0F8FEE7002253
:1009E800002143F83210EFE70122F9E70222F7E786
:1009F8000322F5E70422F3E70522F1E70622EFE7F1
:100A08000722EDE7D831012090F84C00704700BF6D
:100A180080F84C10704700BF90F84D00704700BF39
:100A280008B528B1806BD0F1010038BF002008BD9F
:100A380001F0B4F8FEE700BF08B530B1826BC06BB7
:100A4800131A594251EB030008BD01F0A7F8FEE75D
:100A5800134B1A6810B482B19A68A2B11A69A2B18C
:100A68009A69A2B11A6AA2B19A6AA2B11A6B1AB1AA
:100A78009A6B92B110BC7047062203EBC20443F88C
:100A880032106060F6E70122F7E70222F5E7032259
:100A9800F3E70422F1E70522EFE70722EDE700BFBD
:100AA800D8310120164B5A68824215D0D968814244
:100AB80017D05A69824216D0D969814215D05A6A2C
:100AC800824214D0D96A814213D05A6B824212D022
:100AD800D96B814211D070470020002243F83020A2
:100AE80070470120F9E70220F7E70320F5E7042023
:100AF800F3E70520F1E70620EFE70720EDE700BF61
:100B0800D831012038B504460D4601F04FF8636C22
:100B1800013313D0A16C4B1C0DD001F069F8A36B05
:100B280023B904F12400294600F052FD2046BDE80F
:100B38003840FFF7D3BB0022A264EEE700206064D0
:100B4800E8E700BF0B682DE9F0070446002B38D012
:100B58004868466801F10807BE424E6008BF7668DB
:100B68000020D6F80C8084467668B7424E6008BFED
:100B78007E68F56808BF4E6005F134032560636040
:100B88002B6C2273A360EB6A2361AB6CC4F818C0AA
:100B980063612B6B93F80090B9F1A50F13D19946B7
:100BA800002319F801AF0133BAF1A50F9BB2F8D0B1
:100BB8009B08A38301302034A845D5D1BDE8F007B0
:100BC80070471846FAE70023F3E700BF0C4B196893
:100BD8005A68904210B5044648600AD3D8681B6822
:100BE800191DFFF74DFB074801688C4238BF0460A8
:100BF80010BD98681A68111DBDE81040FFF740BB8A
:100C080084040020040000202DE9F84F0A9F0C9E60
:100C180080460D4692469B46002800F0A280042F8D
:100C280002D900F0BBFFFEE74C2001F0BFF80446F4
:100C3800002800F0E380002E00F0D38006634FEA1E
:100C48008A093046A5214A4602F0EAFD2A78236B34
:100C580084F834200AF1FF3A95F9000003EB8A0181
:100C680021F0070660B36A7884F8352095F90130D9
:100C780033B3A87884F8360095F9021001B3EA78FE
:100C880084F8372095F90330D3B1287984F83800EF
:100C980095F90410A1B16A7984F8392095F90530DD
:100CA80073B1A87984F83A0095F9061041B1EA7948
:100CB80084F83B2095F9073013B12D7A84F83C501D
:100CC800002104F1040A84F83D105046E762A76445
:100CD800FFF7C4FA04F11800FFF7C0FAC7F10500DE
:100CE800A06124613046646241465A4600F028FFFC
:100CF8000B9E206006B13460424D00F057FF2A6910
:100D0800531C2B612968002937D0D5F8DC0018B9A5
:100D18002E68F26A97422CD205F11406E36AD5F8D8
:100D2800E000D5F8E410421C8B42C5F8E0202264AC
:100D380003EB830088BF334A514606EB800088BF27
:100D4800C2F8E430FFF78EFA00F052FFD5F8DC1055
:100D580021B12C4B1A68D06A874205D80120BDE81A
:100D6800F88F00F01BFFFEE700F00CFF0120BDE844
:100D7800F88F2E4646F8144BD0E72C602B69012BD0
:100D880005F11406CAD13046FFF75CFA05F12800D0
:100D9800FFF758FA05F13C00FFF754FA05F1500047
:100DA800FFF750FA05F1780905F16400FFF74AFAF0
:100DB80005F18C084846FFF745FA4046FFF742FA26
:100DC80005F1A000FFF73EFA05F1B400FFF73AFA83
:100DD80005F1C800FFF736FAC5F80C90C5F8088089
:100DE8009CE74FEA8A09484600F0E0FF0646206380
:100DF80000287FF426AF204601F03AF84FF0FF3084
:100E0800BDE8F88F84040020F8B50546164C00F0BC
:100E1800CDFE15B32E1D3046FFF74CFAAB6A1BB159
:100E280005F11800FFF746FA0F4F314607F1B400F5
:100E3800FFF718FAD4F8E820D4F8E000511C431C56
:100E4800C4F8E810C4F8E03000F0D2FED4F8DC2092
:100E580012B13868854202D0F8BD2568DAE7BDE8E6
:100E6800F84000F08FBE00BF8404002010B504468F
:100E780000F09CFE24B1E46A00F0BAFE204610BDE2
:100E8800014B1C68F7E700BF8404002004292DE902
:100E9800F0410D4604462ED800F088FE002C2DD0D7
:100EA800A26C95421DD023481FD903689C423ED0AE
:100EB8000068C66AB54234BF00260126E16A1D4FA4
:100EC800A5648A4207F11408626908BFE56201EB6C
:100ED800810308EB8300C5F105058242A56113D0A3
:100EE8007EB9BDE8F04100F083BE0668A11B4F4201
:100EF80057EB0106E2E700F051FEFEE70D4B1C68D8
:100F0800CEE700F03FFEECE7251D2846FFF7D2F9B3
:100F1800D7F8E410E26A8A4201D9C7F8E42002EB64
:100F2800820308EB83002946FFF79CF9D8E70026DF
:100F3800C4E700BF8404002008B570B14369084ABB
:100F4800934201D0002008BD806A283B9842F9D01E
:100F5800D0F1010038BF002008BD00F01FFEFEE7F9
:100F68004C05002070B5044678B1174D2B6898429F
:100F78000AD000F01BFE2046FFF7DEFF012807D04D
:100F8800BDE8704000F034BE70BD00F007FEFEE71B
:100F9800261D3046FFF78EF9E06AD5F8E4200B4BA2
:100FA800904200EB800188BFC5F8E40003EB8100A4
:100FB8003146FFF757F92868E26AC16A8A42DFD3E7
:100FC80000F0E0FDDCE700BF840400209804002066
:100FD8002DE9F041044600282FD000F0C1FE00F0B2
:100FE800DDFD80462046FFF7A7FF012806D0002632
:100FF800404600F0F9FD3046BDE8F081144DD5F8C3
:10100800EC30EBB92A68E16AD66A271D3846B14246
:1010180034BF00260126FFF74DF9E36AD5F8E4004E
:101028000C4903EB8302834201EB8200394688BFF7
:10103800C5F8E430FFF716F9DAE700F0AFFDFEE790
:1010480005F1A00004F11801FFF70CF90026CFE71D
:10105800840400209804002030B585B00024822242
:1010680000940194029403940E480F492346FFF715
:10107800CBFD0128054605D00DB105B030BD00F007
:101088008DFDFEE700F0F2FB01280546F4D100F0E3
:1010980085FD064BC3F8DC505C6005B0BDE8304008
:1010A80000F004BEA1130008FC3B000884040020E3
:1010B80008B500F073FD40F28443C2F20003002239
:1010C800C3F8DC20BDE8084000F05ABD40F2844374
:1010D800C2F20003D3F8EC20501CC3F8EC007047B0
:1010E80010B500F063FD40F28443C2F200035C686F
:1010F80000F07EFD204610BD10B500F031FE00F076
:101108004DFD40F28443C2F200035C6800F06CFDC0
:10111800204610BD40F28443C2F2000318697047AC
:101128002DE9F047364CD4F8EC30002B3ED16268FC
:10113800561C66606768002F40D0324E33689F4265
:1011480039D3E0682E490268002A4BD0CD68EB6895
:10115800DD686868874225D301F11408894605F1DE
:10116800040A5046FFF7A6F8A96A05F1180009B164
:10117800FFF7A0F8EB6AD4F8E42003EB830093426E
:10118800514608EB800088BFC9F8E430FFF76AF8D9
:10119800E1680B6833B3D9F80C50EA68D568686819
:1011A8008742DCD230600020BDE8F087D4F8F40034
:1011B800411CC4F8F4100020BDE8F087E368186803
:1011C800D8B9E168A268E260A160D4F8F060731C45
:1011D800C4F8F030E068016841B90A4E4FF0FF32B8
:1011E8003260ABE74FF0FF303060DCE7E268054E75
:1011F800D368D86841683160A0E700F0CFFCFEE70B
:1012080084040020040000202DE9F843334CD4F86E
:10121800EC3013B900F0C2FCFEE700F0C7FCD4F8CC
:10122800EC00411EC4F8EC10D4F8EC20002A37D1A9
:101238002369002B34D0254604F114094FF0010826
:10124800D4F8A000254920B3D5F8AC60F668371D5E
:1012580006F11800FFF72EF83846FFF72BF8F36A67
:10126800D5F8E42003EB83009342394609EB80006C
:1012780088BFC5F8E430FEF7F5FF2168F26ACB6A4B
:101288009A42DDD3D4F8A000C5F8F88013490028A5
:10129800DAD1D1F8F4204AB9D4F8F840012C19D0A1
:1012A800002400F0A5FC2046BDE8F883D1F8F4300E
:1012B800002BF1D00125FFF733FF08B1C4F8F8502F
:1012C800D4F8F400411EC4F8F410D4F8F420002A2D
:1012D800F1D1E1E700F056FCE3E700BF8404002009
:1012E800F8B52C4CD4F8EC305D1CC4F8EC502369EC
:1012F8008B42054616464AD804F164010122FFF7DD
:1013080021FC04F150010746012205EB4010FFF7CC
:1013180019FC3F1804F13C01012205EB4710FFF7C7
:1013280011FC3F1804F12801012205EB4710FFF7D3
:1013380009FC3F1804F11401012205EB4710FFF7DF
:1013480001FCC719E168022205EB4710FFF7FAFB19
:101358003F18A168022205EB4710FFF7F3FB3F187F
:1013680004F1B401042205EB4710FFF7EBFB3F182B
:1013780004F1C80105EB47100322FFF7E3FB3C1813
:101388000EB100203060FFF73FFF2046F8BD002473
:10139800F9E700BF84040020164E08B5344609E07A
:1013A800D4F8EC00D4F8B450411CC4F8EC10FFF7A2
:1013B8002BFF35B9D6F8E830002BF1D100F0E2FB6D
:1013C800F8E700F0F3FBD4F8C020D568281DFEF735
:1013D80071FF2369581E2061D4F8E8104A1EC4F82A
:1013E800E82000F005FC286B00F042FD284600F0DC
:1013F8003FFDDFE78404002010B518B9BDE81040B0
:1014080000F0C0BB094BD3F8EC20511CC3F8EC101A
:101418005C681B680419181DFEF74CFF2046FFF78F
:10142800D5FBFFF7F1FE0028E8D010BD84040020AA
:1014380038B500282BD0002926D0164B0268D3F8DF
:10144800EC40651CC3F8EC505D68954202EB010462
:101458000DD3A2420DD919680460081DFEF72AFFB2
:101468002046FFF7B3FBFFF7CFFE48B138BDA242D5
:1014780001D9A542EFD30460FFF7C6FE0028F5D1D5
:10148800BDE8384000F07EBB00F088FBFEE700F0C6
:1014980085FBFEE78404002008B5204BD3F8EC2038
:1014A800002A30D1C3F8F820D3F8E40000EB80011B
:1014B80003EB81025069A8B9D3F8E42019461AB998
:1014C80025E0D1F8E40010B3D3F8E400421EC3F8D5
:1014D800E420D3F8E40000EB800203EB82004269C9
:1014E800002AEED0D3F8E4100D4A01EB810002EB9C
:1014F800800101F108004A68526882424A6009D0B6
:10150800D168196008BD0122C3F8F82008BD00F0B1
:1015180045FBFEE752684A60F2E700BF84040020FA
:1015280098040020F8B50446174F00F03FFB002C44
:1015380021D0251D2846FEF7BDFEA36A1BB104F184
:101548001800FEF7B7FE104E294606F1C800FEF750
:1015580089FE00F04DFB3868844200D0F8BDD6F80B
:10156800DC3063B93169D6F8C8208A4205D0BDE8B5
:10157800F840FFF791BF3C68DBE73360F8BDBDE892
:10158800F84000F0FFBA00BF8404002038B50D46CB
:1015980080B10E4C21681831FEF772FE20680430C5
:1015A800FEF788FE6A1C08D061686818BDE83840F4
:1015B800FFF70CBB00F0F2FAFEE7204650F8C82B04
:1015C800111DBDE83840FEF74DBE00BF8404002061
:1015D80038B50D4670B1094C21681831FEF742FE46
:1015E80020680430FEF766FE61686818BDE8384078
:1015F800FFF7ECBA00F0D2FAFEE700BF840400203F
:10160800C36870B5DC68002C31D004F11806194D98
:101618003046FEF74FFED5F8EC00E0B9261D3046FF
:10162800FEF748FEE16AD5F8E4201348914201EB41
:10163800810388BFC5F8E41000EB83003146FEF74C
:1016480011FE2968E26ACB6A9A420ED30949012041
:10165800C1F8F80070BD314605F1A000FEF702FEA2
:101668002968E26ACB6A9A42F0D2002070BD00F085
:1016780095FAFEE7840400209804002008B530B1EC
:10168800044BD3F8F0205B6880E80C0008BD00F03C
:1016980085FAFEE78404002038B504460D4620B3D9
:1016A80001B300F083FA2968114B481C5A6817D017
:1016B800D3F8F00023688342636801D09A4202D2CB
:1016C800D01A814204D8012400F092FA204638BD8D
:1016D800891ACA1820462A60FFF7D0FF0024F3E7CA
:1016E8000024F1E700F05AFAFEE700F057FAFEE7A7
:1016F8008404002040F28443C2F200030122C3F8AC
:10170800F820704700B1406C704700BF00B14164D9
:10171800704700BF40F28443C2F200031868704764
:10172800054BD3F8DC0028B1D3F8EC00002814BF2F
:1017380002200120704700BF84040020F8B5044649
:10174800B0B1174DC36A2A68D06A834210D22E46B8
:1017580003EB830356F8141B6269C86A06EB83031C
:10176800C0F105019A42A16103D02A68D06AE062FB
:10177800F8BD271D3846FEF79DFD2B68D5F8E41007
:10178800DA6A8A42E26201D9C5F8E42002EB8200F3
:1017980006EB80003946BDE8F840FEF763BD00BFA0
:1017A8008404002038B50446E8B1C26A836C9A42C2
:1017B80019D0051D2846FEF77DFD0B4AA36CD2F80B
:1017C800E410E3628B42C3F1050088BFC2F8E4303D
:1017D80003EB8302054BA061294603EB8200BDE8B9
:1017E8003840FEF73FBD38BD84040020980400202F
:1017F800F8B50D4C00F0DAF925681DB1BDE8F840E0
:1018080000F0F6B9271D384604F11806FEF71AFD50
:101818003046FEF717FD0A200C212A46E7622663A8
:10182800FEF71CFE2060E9E780050020914208B51C
:101838004160006105D88169D21A8A420CD301201F
:1018480008BD9A4201D29942F9D2074B011DD86AC4
:10185800FEF716FD002008BD011D0348006BFEF7CA
:101868000FFD002008BD00BF8005002000B585B031
:10187800FFF7BEFF0A4B186870B1002302228DE8FB
:101888000C0002930393074807494FF48272FFF74D
:10189800BBF908B105B000BD00F080F9FEE700BF54
:1018A80080050020BD190008043C00082DE9F0411E
:1018B8000D46804617461E4699B1282000F076FA54
:1018C800044658B1FFF794FF069BC4F80080A56151
:1018D800E76126626362201DFEF7C0FC2046BDE872
:1018E800F08100F05BF9FEE730B5124D2C6887B047
:1018F800BCB10391049205903BB11A46204603A956
:101908000023FEF7B1FE07B030BD0193FFF708FFD3
:101918000128019B07D01A46286803A9FEF7CCFDC9
:10192800F1E72046EFE728680A9A03A9FEF7C4FD05
:10193800E9E700BF800500202DE9F0431C4E83B085
:101948004FF00008B1460CE0DD68EC682F68251DF3
:101958002846FEF7AFFC2046636A9847E1690129EB
:101968000AD0F36A12491A68002AEDD1086B0B6392
:10197800C86203B0BDE8F083A26907EB020E00213C
:10198800BE4520463A460B4608D9C4F804E024610F
:10199800D9F82C002946FEF773FCE2E7CDF8008061
:1019A800FFF7A2FF0028DCD100F0F8F8FEE700BF3F
:1019B800800500202DE9F043514E87B0B046F36A08
:1019C8001A68D2F1010938BF4FF00009B9F1000FC8
:1019D80063D1D8680568FFF779FBFFF781FB716B66
:1019E800884207465BD3C8F83400B9F1000F01D12B
:1019F800BD425ED93068E91BFFF784F8FFF704FCA5
:101A080008B900F0BFF80022306803A91346FEF7B2
:101A180079FE0028D3D0059C606910B1201DFEF71F
:101A280049FCFFF75DFB776BB842054632D3039F4D
:101A38007563022F24D0032F1ED0002FE3D1A26993
:101A4800049B204699182A46FFF7F0FE0128DAD1B0
:101A5800636A20469847E1690129D4D1A5690097AE
:101A68002046049C39462A193B46FFF73DFF0028CB
:101A7800C9D100F093F8FEE7204600F0F9F9C2E773
:101A8800049FA76197B12A462046E9192B46FFF71C
:101A9800CDFEB8E7FFF750FFC9E700259BE7FFF742
:101AA8004BFFC8F83470FFF7AFFBACE700F076F8EF
:101AB800FEE7FFF7A9FBD8F82C40E368DC68201D97
:101AC800FEF7F8FBE269012A03D0656A2046A847B9
:101AD80099E7A169204669183A462B46FFF7A6FE02
:101AE8000128F2D14946CDF8009020462A464B46B7
:101AF800FFF7FAFE0028E8D100F050F8FEE700BF33
:101B08008005002010B5044600F050F86069041CF8
:101B180018BF012400F06CF8204610BD006A704719
:101B2800A0480068006880F3088862B600DF00BF3C
:101B3800DFF87402016841F470010160704700BF6A
:101B48004FF0807300E90A0041F6D533C0F6000370
:101B58006FF0020140F80C3C40F8202C40F8241C9F
:101B680044387047054B19680868B0E8F04F80F3AF
:101B780009884FF0000080F3118870478404002022
:101B8800704700BF4EF60453CEF200034FF0805268
:101B98001A60BFF34F8FBFF36F8F7047EFF3118059
:101BA8004FF0500181F311887047002008B5FFF706
:101BB800F5FF40F20803C2F200031A68501C1860CF
:101BC800BFF34F8FBFF36F8F08BD00BF08B5054B3C
:101BD8001868431C02D0FFF7E1FFFEE7FFF7DEFFBE
:101BE800FEE700BF0800002080F31188704700BF9F
:101BF800034B18680138186000B17047FFF7F4BF4D
:101C080008000020EFF30980114B1A681EF0100F2E
:101C180008BF20ED108A20E9F04F10602DE9084038
:101C28004FF0500080F31188FFF736FC4FF00000AA
:101C380080F31188BDE8084019680868B0E8F04FDB
:101C48001EF0100F08BFB0EC108A80F309887047A7
:101C58008404002008B5FFF7A1FFFFF761FA30B14F
:101C68004EF60453CEF200034FF080521A60002063
:101C7800BDE80840FFF7B8BF40F22003C2F20003F6
:101C880044F6D3521968C1F26202A2FB01304EF247
:101C98001402CEF200024EF210038109CEF20003C4
:101CA800481E106007221A60704700BF10B54FF435
:101CB8006443CEF2000382B01A7827480192FF21CC
:101CC80019701C788DF803409DF803209DF80330A7
:101CD80002F05001072401701906446038D5062324
:101CE80000E00B469DF803104C00E2B28DF803208B
:101CF8009DF80340591E2206F3D41B0203F4E06248
:101D0800019C42604FF46440CEF200004EF620532E
:101D1800CEF20003E2B20270196841F470041C604C
:101D2800186840F070421A60FFF7A6FF0B4B0024BA
:101D38001C60FFF7FDFE4EF63471CEF20001086814
:101D480040F040420A60FFF7EBFE204602B010BDAB
:101D58004FF4E062D4E700BFB80500200800002077
:101D680008B5EFF305810F290BD80D4B4EF60C5231
:101D7800CEF200025B68106800F4E06199420CD86A
:101D880008BD4EF2F032CEF20002054B885C19789D
:101D98008142EBD9FFF702FFFEE7FFF7FFFEFEE700
:101DA800B805002008ED00E088ED00E0F8B504462D
:101DB800FFF78CF92A4B9A68A2B92A4D5A6003F1A9
:101DC800140121F0070142F6F830C0F2010005F6CF
:101DD8009436C5F8942B01221960C5F8980B486011
:101DE8000E609A60002C37D0083462071CBF24F0BC
:101DF8000704083442F6F630611EC0F20100814241
:101E08002CD81B68164D01E01D46334659688C4294
:101E180002D91E68002EF7D1134A93421ED02E68AD
:101E28001A68081B083610282A600DD91F190C4A91
:101E380078605C607D6800E01A46136859688D42D6
:101E4800FAD83B602146176008480268531A0360B5
:101E5800FFF7DAF93046F8BD2646F9E70026F7E736
:101E6800C005002038260120CC3101200C000020BC
:101E780038B50546B8B1FFF729F9A5F1080055F8B6
:101E8800044C094A00E01A46136859688C42FAD88B
:101E9800064945F8083C0B6810601C190C60BDE841
:101EA8003840FFF7B1B938BDC00500200C0000204C
:101EB80040F20C03C2F2000318687047704700BF75
:101EC80010B50B4C002120680A460B46FEF71AFC99
:101ED80000210B4620684FF0FF32FEF713FC4FF449
:101EE8004060C4F202004FF4004100F011FFEFE738
:101EF800D431012008B54FF440604FF48041C4F25A
:101F0800020000F0F9FE4FF47A70FFF775FA4FF40B
:101F18004060C4F202004FF4804100F0EFFE4FF43D
:101F28007A70FFF769FAE6E708B54FF440604FF4B6
:101F38000051C4F2020000F0DFFE4FF4FA70FFF720
:101F48005BFA4FF44060C4F202004FF4005100F015
:101F5800D5FE4FF4FA70FFF74FFAE6E708B54FF4ED
:101F680040604FF48051C4F2020000F0C5FEC82062
:101F7800FFF742FA4FF44060C4F202004FF4805178
:101F880000F0BCFEC820FFF737FAE8E740F220036C
:101F9800C2F200032DE9F04F196844F6D352C1F29A
:101FA8006202A2FB01304EF210054FF46D46CEF2EC
:101FB80000058709CEF200060024F0227B1E4FF0B0
:101FC80007098BB06B60082086F823200121AC60DC
:101FD800C5F8009000F08CFB26464FF440604FF4A3
:101FE800704301250327C4F202066946C4F20200C1
:101FF80000938DF804508DF806408DF805708DF823
:10200800074000F09FFD3046694600958DF8044072
:102018008DF806408DF805708DF8074000F092FDA8
:1020280029464FF4003000F08DFB2846294600F081
:102038005FFB4FF002084FF00C0B30466946CDF8B5
:1020480000B08DF805708DF804808DF806408DF885
:1020580007504FF4884A00F075FD304641464A461D
:1020680000F05AFEC4F2000A304639464A4600F0EB
:1020780053FE4FF4E132504602A90292ADF80C40EB
:10208800ADF80E40ADF81040ADF81440ADF812B000
:1020980000F008FF5046294600F09AFF29464FF005
:1020A800005000F04FFB2846294600F021FB20464F
:1020B80006A906940794CDF8248001F0C3F83023CC
:1020C8003046694600938DF804708DF8074000F09B
:1020D80039FD2046294601F0D7F820462146A14679
:1020E80001F018F90BB0BDE8F08F00BF10B5002063
:1020F80084B0014600F03CFE0124002302A8082118
:102108008DF80C3002948DF80D108DF80E4000F00B
:1021180011FC0F23062201A88DF804208DF8053044
:102128008DF806308DF8074000F00EF904B010BDA8
:1021380000B583B002AA0B4800210B4642F8041DE3
:102148000068FEF791FA012000F062FC019B33B1B0
:102158004EF60451CEF200014FF080520A6003B0EF
:1021680000BD00BFD43101204FF46D42CEF2000211
:102178004FF46053D2F88810C4F2020341F470009F
:10218800C2F888001968002241F0010018609A60BE
:10219800186843F2100120F0847020F48030C2F2F5
:1021A800004118605960196882B021F480201860D5
:1021B800DA60009201921A6842F480311960184678
:1021C80003E00099B1F5A06F09D0036803F4003269
:1021D800019200994B1C0093019A002AF1D04FF408
:1021E8006050C4F20200036813F400320DD00121DC
:1021F8000191019801280CD04FF46D43CEF20003F1
:102208004FF00061996002B070470192019801286F
:10221800F2D14FF46053C4F202034FF4E042196C58
:10222800C4F2000241F080501864116841F4804003
:1022380010609A689A60996841F4004098609968BB
:1022480045F2084241F4A050C0F2407298605A60CA
:10225800196841F080721A60184601684FF460539B
:102268008A01C4F20203F8D54FF47052C4F2020294
:1022780040F205601060996821F003029A6098683E
:1022880040F0020199609A6802F00C000828FAD11F
:10229800B2E700BF4FF46053C4F202039A6802F039
:1022A8000C00042812D0082815D04FF41051C0F2A1
:1022B800F4014FF46050C4F20200184B8268C2F374
:1022C80003101A5C21FA02F1196170474FF490511A
:1022D800C0F27A01EDE758685A6810F4800F586820
:1022E80002F03F0114BF4FF490534FF41053C0F362
:1022F80088124FF4605014BFC0F27A03C0F2F4039E
:10230800C4F20200B3FBF1F303FB02F14268C2F32B
:102318000143581C4200B1FBF2F1CAE7100000204B
:10232800643C0008000000206404002068040020C9
:10233800183201204FF46D4340F0BF60CEF2000325
:1023480040F40031D9607047C37830B47BB9027863
:102358004FF461435109CEF2000302F01F0220310D
:10236800012000FA02F243F8212030BC70474FF4F4
:102378006D44CEF200044578E16884780378CA4356
:10238800C2F30222C2F10401C9B205FA01F10F2514
:1023980045FA02F2C9B222400A4303F1604311012F
:1023A80003F56143CAB283F8002300784FF4614310
:1023B800410900F01F02CEF20003012000FA02F2E8
:1023C80043F82120D1E700BF21F060414FF46D436D
:1023D80021F07F02CEF2000310439860704700BFDF
:1023E8004FF46D43CEF200031A6919B922EA0000CE
:1023F8001861704710431861704700BF4EF2100310
:10240800CEF2000304281A680CBF42F0040222F03E
:1024180004021A60704700BF4FF46053C4F202030D
:102428000022196841F0010018609A60186843F2A8
:10243800100120F0847020F48030C2F2004118604E
:102448005960196821F480201860DA60704700BF6D
:1024580043F60203C4F2020300221A701870704790
:1024680082B04FF4605200230193C4F20202106854
:1024780083030CD5019A511C0191019B4FF46053C1
:10248800C4F202031868C0F3404002B070470199D3
:102498004B1C01930198B0F5A06FE8D1EEE700BF9F
:1024A8004FF46053C4F202031A6822F0F80141EABB
:1024B800C0001860704700BF0023C4F247231860AB
:1024C800704700BF43F67003C4F2020300220128DC
:1024D8001A701A7004D0042801D1052018707047AA
:1024E800187070474FF46863C4F247231860704748
:1024F80030B40143029D41EA82125B084FF46054F4
:1025080042EA0565591EC4F2020445EA01406060CA
:1025180030BC70476023C4F247231860704700BF7F
:102528004FF460538001C4F2020340EA0171C3F81A
:10253800841070476823C4F247231860704700BFAF
:102548004C23C4F247231860704700BF4FF4605310
:10255800C4F202039A6822F0EC62104301439960C6
:10256800704700BF4FF46053C4F202039A6822F028
:102578007842104301439960704700BF4FF460539D
:10258800C4F202039A6822F0030108439860704776
:102598004FF46053C4F20203986800F00C007047CF
:1025A8004FF46053C4F202039A6822F0F001084322
:1025B800986070474FF46053C4F202039A6822F49B
:1025C800E0510843986070474FF46053C4F2020327
:1025D8009A6822F4604141EAC0009860704700BFE1
:1025E8004FF46053C4F2020310B49A6802F00C016D
:1025F800042922D0082926D04FF41052C0F2F40240
:1026080002604FF46053C4F2020321499C68C4F38A
:1026180003140C5D22FA04F242609C68C4F382241D
:102628000C5D22FA04F484609B68C3F34233C95CEE
:1026380022FA01F2C26010BC70474FF49052C0F207
:102648007A020260DDE75C68596814F4800F5C6800
:1026580001F03F0214BF4FF490534FF41053C4F3EA
:1026680088114FF4605414BFC0F27A03C0F2F40327
:10267800C4F20204B3FBF2F303FB01F26168C1F395
:1026880001435C1C6100B2FBF1F20260B9E700BFD4
:102698002400002000F44073B3F5407F0CD14FF4C0
:1026A8006053C4F2020320F070419A6821F440712B
:1026B80022F4F812114399604FF46053C4F20203F4
:1026C80000051A6F010D11431967704740F63C6306
:1026D800C4F24723186070474FF46463C4F2472379
:1026E800186070474FF4AE73C4F247231860704700
:1026F8004FF46053C4F202031A6B19B922EA0000BE
:102708001863704710431863704700BF4FF4605355
:10271800C4F202035A6B19B922EA000058637047E1
:1027280010435863704700BF4FF46053C4F202036C
:102738009A6B19B922EA00009863704710439863AE
:10274800704700BF4FF46053C4F202031A6C19B902
:1027580022EA00001864704710431864704700BFED
:102768004FF46053C4F202035A6C19B922EA00000C
:102778005864704710435864704700BF4FF4605363
:10278800C4F202031A6919B922EA000018617047F5
:1027980010431861704700BF4FF46053C4F202033E
:1027A8005A6919B922EA0000586170471043586104
:1027B800704700BF4FF46053C4F202039A6919B915
:1027C80022EA00009861704710439861704700BF83
:1027D8004FF46053C4F202031A6A19B922EA0000DE
:1027E8001862704710431862704700BF4FF4605377
:1027F800C4F202035A6A19B922EA00005862704703
:1028080010435862704700BF4FF46053C4F202038C
:102818001A6D19B922EA0000186570471043186547
:10282800704700BF4FF46053C4F202035A6D19B9E0
:1028380022EA00005865704710435865704700BF8A
:102848004FF46053C4F202039A6D19B922EA0000EA
:102858009865704710439865704700BF4FF4605300
:10286800C4F202031A6E19B922EA0000186670470A
:1028780010431866704700BF4FF46053C4F2020358
:102888005A6E19B922EA0000586670471043586614
:10289800704700BF43F60D03C4F202031A7819B952
:1028A80022EA00001870704710431870704700BF84
:1028B8004309012B0ED04FF46051C4F20201022BE0
:1028C8000CBF096F496F00F01F0021FA00F303F0F5
:1028D800010070474FF46052C4F202021168F2E737
:1028E8004FF46053C4F202035A6F42F08070586785
:1028F800704700BF4FF46053C4F20203D96808421E
:102908000CBF00200120704743F60E03C4F20203F7
:10291800187070474FF47053C4F201034FF6FF71FB
:102928000022C0F27F011A605A609A60DA60596129
:10293800704700BF837970B43BB34FF47053C4F24F
:10294800010301681E6802794579CC4326401E6060
:102958005E6802F1804202F59E3234405C60146881
:102968002143116002689868D14308409860D8688C
:10297800102D01EA0001D96013D005F1804505F555
:102988009E352B681A432A6009E00279016802F132
:10299800804000F59E331A6822EA01021A6070BC72
:1029A8007047996811439960D8680243DA60F6E77E
:1029B80000230C220360037142718371704700BFCA
:1029C8004FF47053C4F201031A6910431861704739
:1029D8004FF47053C4F20103596908420CBF002038
:1029E800012070474FF47053C4F2010358617047D7
:1029F8004FF47053C4F201031A68596910EA0103CD
:102A080004D010420CBF00200120704718467047C0
:102A18004FF47053C4F201035861704708B500239E
:102A2800C4F2020398423CD04FF48061C4F2020120
:102A3800884240D04FF40062C4F20202904244D06F
:102A48004FF44063C4F20203984248D04FF48051D7
:102A5800C4F2020188424CD04FF4A052C4F20202E0
:102A6800904250D04FF4C053C4F20203984254D05D
:102A78004FF4E051C4F20201884258D04FF400529A
:102A8800C4F20202904200D008BD01214FF48070C8
:102A9800FFF774FE4FF480700021BDE80840FFF78F
:102AA8006DBE01200146FFF769FE01200021BDE847
:102AB8000840FFF763BE02200121FFF75FFE0220F6
:102AC8000021BDE80840FFF759BE04200121FFF7A7
:102AD80055FE04200021BDE80840FFF74FBE08203E
:102AE8000121FFF74BFE08200021BDE80840FFF751
:102AF80045BE10200121FFF741FE10200021BDE84E
:102B08000840FFF73BBE20200121FFF737FE2020B9
:102B18000021BDE80840FFF731BE40200121FFF742
:102B28002DFE40200021BDE80840FFF727BE802089
:102B38000121FFF723FE80200021BDE80840FFF7B0
:102B48001DBE00BF2DE9F00F0E6884B00022884634
:102B580013464FF0010B00968A4607E0DDF8049013
:102B6800A14539D04B1CAA1C102B54D0009E0BFA3F
:102B780003F5591C05EA060C0BFA01F42640AC458E
:102B8800019602F10205E9D1032606FA02F907685F
:102B98009AF804806FEA09094E463E4006600768C5
:102BA800CDF80C9008FA02F908F1FF3849EA07094C
:102BB800B8F1010FC0F8009031D9C368039F9AF8A3
:102BC80007C0DDF804903B40C360C3680CFA02F20A
:102BD8001A43A145C260C5D1032304689AF80420AA
:102BE800AB40DB431C400460046802FA05FC013A70
:102BF8004CEA0404012A046033D9C2689AF80740F1
:102C08001340C360C26804FA05F31343C3604B1C46
:102C1800AA1C102BAAD104B0BDE8F00F7047D0F859
:102C28000880039E9AF806709AF8059006EA080844
:102C3800C0F80880D0F8088009FA02F949EA0808BB
:102C4800C0F80880D0F8048028EA0C0CC0F804C04A
:102C5800D0F8049007FA03F39FB247EA09034360E8
:102C6800ABE786689AF805709AF806201E408660D9
:102C7800846807FA05FC4CEA040686604768019EEA
:102C880027EA06074760446802FA01F292B2224333
:102C98004260B2E700234FF6FF720260037143718E
:102CA8008371C371704700BF82B04FF480330193C2
:102CB800019A41EA02030193019AC261C161019933
:102CC800C161C3690193C069019002B0704700BF38
:102CD800036919420CBF002001207047006980B2C7
:102CE800704700BF436919420CBF0020012070479C
:102CF800406980B2704700BF0183704741837047C5
:102D08000AB9418370470183704700BF416170472A
:102D18004369594041617047CB08083301F0070106
:102D280030B4890050F823500F2404FA01F425EA3E
:102D3800040440F8234050F8234002FA01F21443F7
:102D480040F8234030BC704708B501214FF480405B
:102D5800FFF74CFD4FF480400021BDE80840FFF725
:102D680045BD00BF4FF46053C4F2010318607047BB
:102D78008A084FF46053C4F20103023201F00301E0
:102D880030B4890053F822500F2404FA01F425EADC
:102D9800040443F8224053F8224000FA01F00443A7
:102DA80043F8224030BC7047DC23C4F22723186064
:102DB800704700BF4FF48063C4F227231860704740
:102DC8004FF46053C4F20103186AC0F3002070473F
:102DD80008B54FF48053C4F20103984228D04FF449
:102DE8008841C4F2000188422CD04FF49042C4F2CA
:102DF8000002904232D04FF49843C4F20003984244
:102E080038D04FF4A041C4F2000188423ED04FF4BC
:102E1800A052C4F20102904200D008BD2020012136
:102E2800FFF7E4FC20200021BDE80840FFF7DEBCE6
:102E380010200121FFF7DAFC10200021BDE808402E
:102E4800FFF7D4BC01214FF40030FFF7C1FC4FF469
:102E580000300021BDE80840FFF7BABC01214FF45B
:102E68008020FFF7B5FC4FF480200021BDE8084022
:102E7800FFF7AEBC01214FF40020FFF7A9FC4FF487
:102E880000200021BDE80840FFF7A2BC01214FF453
:102E98008010FFF79DFC4FF480100021BDE808402A
:102EA800FFF796BC028ACB8822F440521204F0B590
:102EB800120C04461A4348890F898E880D46898961
:102EC8002282A38923F4B05222F00C033E431A0451
:102ED8000643B3B2100C43EA0006A681A28A22F484
:102EE800407003041E0C0E4385B0A6826846FFF7A7
:102EF80077FB4FF48051C4F201018C422CD04FF47F
:102F0800A052C4F20102944226D0A089029B06B2C4
:102F1800002E26DB2D6803EB830101EB8102AB0059
:102F2800B2FBF3F148F21F53A089C5F2EB13A3FBE0
:102F38000156720900B264251601002802FB15111A
:102F480018DB0D013235A3FB0553C3F3431232439B
:102F580091B2218105B0F0BDA089039B06B2002E75
:102F6800D8DA286803EB830606EB86054200B5FB32
:102F7800F2F1D7E7C8003230A3FB0013C3F34212C3
:102F88003243E5E700234FF416520C210260838098
:102F9800C380038141818381704700BF0A88038A07
:102FA80030B44D888C88C9882A4323F4706322433F
:102FB8001B040A4392B2190C42EA0103038230BC93
:102FC800704700BF0023038043808380C38070471D
:102FD800838929B923F400510A04130C83817047AB
:102FE80099B241F400528281704700BF038B03F409
:102FF8007F420283038B9AB211430183704700BF5B
:10300800838919B959044A0C828170476FEA43438E
:103018006FEA53418AB28281704700BF838A29B917
:1030280023F400610A04130C8382704799B241F4B7
:1030380000628282704700BFC905CA0D828070474E
:103048008088C105C80D7047038A23F00F02130456
:103058001A0C0282038A9AB211430182704700BF98
:10306800838929B923F002010A04130C838170476C
:1030780099B241F002028281704700BF838923F42C
:10308800006213041A0C828183899AB211438181E8
:10309800704700BF038A23F0200213041A0C02822F
:1030A800038A9AB211430182704700BF038A29B983
:1030B80023F480410A04130C0382704799B241F447
:1030C80080420282704700BF838999B241F00102B1
:1030D80082817047838A29B923F008010A04130CF6
:1030E8008382704799B241F008028282704700BF1C
:1030F800038BDAB20283038B9AB242EA012101837D
:10310800704700BF838A29B923F020010A04130CF1
:103118008382704799B241F020028282704700BFD3
:10312800838A29B923F010010A04130C838270479B
:1031380099B241F010028282704700BF838A23F05F
:10314800040213041A0C8282838A9AB21143818280
:10315800704700BF838A29B923F002010A04130CBF
:103168008382704799B241F002028282704700BFA1
:10317800838A9BB21AB923EA0101818270471943F5
:103188008182704701F01F0310B4C1F3421101247A
:10319800A14204FA03F30DD002290DD014302AB944
:1031A800026822EA0301016010BC704702681343F9
:1031B8000360F9E70C30F2E71030F0E703881942B2
:1031C8000CBF002001207047C9438AB202807047B3
:1031D80010B4C1F34213012401F01F02A34204FA00
:1031E80002F214D0022B0CBF038A838A9BB21340CD
:1031F800008882B24BB1090A012303FA01F0104298
:103208000CBF0020012010BC70471846FBE78389DB
:103218009BB21340ECE700BF090A012303FA01F24D
:10322800D1438BB20380704708B501214FF000509D
:10323800FFF7CEFA4FF000500021BDE80840FFF735
:10324800C7BA00BF70B491E860004FF4E8438C68D7
:10325800CA68C4F2000346EA05010C431E6840F63A
:10326800FE7505FA00F5224326EA050502FA00F084
:1032780045EA0001196070BC704700BF0023036075
:1032880043608360C36070474FF4E843C4F20003AF
:103298001A6831B9012101FA00F022EA00021A6025
:1032A8007047012101FA00F010431860704700BF11
:1032B8004FF4E843C4F2000300095A6831B9012108
:1032C80001FA00F022EA00025A607047012101FA6F
:1032D80000F01043586070474FF4E843C4F200030D
:1032E8005A6818B922F003005860704742F0030189
:1032F800596070474FF4E843C4F2000301FA00F143
:1033080022B91A6822EA0101196070471868014356
:103318001960704782B04FF4E843C4F200030022FA
:1033280001920193019B083318180190019A1160CA
:1033380002B0704782B04FF4E843C4F200030022A1
:1033480001920193019B143318180190019A11609E
:1033580002B0704747F220430828C4F200030CBFAC
:1033680042EA012142EA0141C150704782B04FF45C
:10337800E8430022C4F200030192019301992C3121
:1033880001EB90000190019B1A6890B202B070475F
:103398004FF4E843C4F200031A6839B94FF4805176
:1033A80001FA00F022EA00021A6070474FF48051D7
:1033B80001FA00F010431860704700BF4FF4E8436B
:1033C800C4F2000301FA00F122B91A6822EA0101E5
:1033D8001960704718680143196070474FF4E84353
:1033E800C4F2000301FA00F1586B01420CBF00203F
:1033F800012070474FF4E843C4F2000301FA00F1DA
:10340800596370474FF4E843C4F2000301FA00F12E
:103418001A68586B084003D011420CBF00200120E5
:10342800704700BF4FF4E843C4F2000301FA00F10B
:103438005963704730B585B0FEF7A8FDFEF756FE14
:10344800032201200021FDF709F81A4A106020B173
:1034580000210A460B46FDF72FF8002401251649DE
:103468000095822223460194029403941348FDF7A1
:10347800CBFB1349009582222346019402940394BE
:103488001048FDF7C1FB104900958222234601949C
:10349800029403940D48FDF7B7FB0D49009582226D
:1034A80023460194029403940A48FDF7ADFBFDF707
:1034B800D3FDFEE7D43101200C3C0008651F00084D
:1034C800143C0008311F00081C3C0008FD1E0008C1
:1034D800243C0008C91E0008002100F004B80D4B68
:1034E8005B58435004310C480C4B42189A42FFF485
:1034F800F6AF0B4A00F003B8002342F8043B094B2F
:103508009A42FFF4F9AFFEF72FFE00F09DF8FFF79F
:1035180091FF7047643C000800000020640400200C
:103528006804002018320120FFF7FEBF2DE9F041A2
:10353800274C2568D5F8484184B00746002C41D06F
:1035480066681F2E1CDD234810B94FF0FF301FE0BE
:103558004FF4C870039102920193AFF3008003996E
:10356800029A019B04460028EFD0D5F84861002054
:1035780060602660C5F84841C4F88801C4F88C0129
:10358800656847B9A81C013544F82010656000201B
:1035980004B0BDE8F081D4F88861012004EB850807
:1035A80000FA05F00643022FC8F88820C4F888619D
:1035B800C8F80831E6D1D4F88C3143EA0002C4F8DF
:1035C8008C21DFE705F5A674C5F84841B8E700BFC8
:1035D800303C00080000000008B50021044600F057
:1035E800BFF9044B1868C16B01B18847204600F049
:1035F8002BFB00BF303C000870B5114B114C181B59
:10360800811018D004EB81044E1E354654F8042D61
:1036180006F00106904775B126B154F8043D984765
:10362800013D08D054F8040D8047013D54F8041DAD
:103638008847013DF6D1BDE8704000F0FFBA00BFF1
:10364800643C0008603C0008F8B5204F204C381B4B
:10365800871017D07A1E2368012502F001069847C3
:10366800AF420FD02EB154F8041F02258847AF424D
:1036780008D0606880470235A268261D9047083444
:10368800AF42F6D1134F144C00F0D2FA3B1B9F10F7
:1036980018D07D1E216805F0010601258847AF4234
:1036A80011D02EB154F8040F02258047AF420BD039
:1036B800626890470235A368261D98470834AF42D0
:1036C800F6D1F8BDF8BDF8BDF8BD00BF583C0008FC
:1036D800583C0008603C0008583C00080F2A2DE9B7
:1036E800F00340F2958041EA00039B0740F0928086
:1036F8000C6804604D6845608E68A2F1100386600E
:10370800CC681D460F2DC460C3F3001601F11004E8
:1037180000F1100322D966B126681E6066685E60F3
:10372800A6689E60E668103DDE60103410330F2DE9
:1037380014D926681E6066685E60A6689E60E668A2
:10374800DE6026691E6166695E61A6699E61E6693A
:10375800203DDE61203420330F2DEAD8A2F110037A
:1037680023F00F0402F00F031034032B00EB0408BE
:10377800214451D9A3F104090B464FEA990901EBF9
:10378800890C53F8046BC1EB0C0544460CF1040C8E
:10379800634544F8046BC5F3800512D02DB153F886
:1037A800045B634544F8045B0BD01E46254656F877
:1037B800047B45F8047B5F68331D67602C1D6345F7
:1037C800F3D109F101039C00091902F003024444F2
:1037D800DAB123460D7803F8015BA218E443141903
:1037E800934204F0010410D02CB111F8014F03F8F2
:1037F800014B934209D04D781C4604F8015B8D7843
:103808005D70631C02319342F5D1BDE8F003704747
:103818000446DDE70446DCE744461A46D8E700BF1D
:10382800F0B48407034600F08E80541E002A00F08E
:103838008880E507CEB211D41A46671E02F8016BDC
:103848001346154692070FD0002C7AD003F8016B67
:103858009A073C461D4607D0013CEDE7034603F8AE
:10386800016B9A071D46F7D1032C52D9CEB246EA0E
:1038780006270F2C47EA07432DD9A4F11002174653
:103888000F2FC2F300162B606B60AB60EB6005F185
:10389800100216D93EB1103F136053609360D36095
:1038A80010320F2F0DD9203F02F11006136053601C
:1038B8009360D360136153619361D36120320F2FFA
:1038C800F1D8A4F1100222F00F0204F00F04103214
:1038D800032C15441DD9271F3E462A46032E42F8BD
:1038E800043BC7F380070DD927B1043E032E42F8E5
:1038F800043B07D91746083E47F8043B53603A1D76
:10390800032EF7D8231F23F00302131D04F003042A
:10391800ED18B4B12B46C9B203F8011B2C19ED43BD
:103928006219A34202F001050BD01DB103F8011B77
:10393800A34206D01A4602F8011B5970531CA34231
:10394800F8D1F0BC7047054614468DE7024B13B119
:10395800024800F049B9704700000000013600082D
:103968002DE9F04F9F4B87B01A68049002F5A470B8
:1039780003920D4605904FF0010A0399DDF8149063
:10398800D1F84841002C43D06268B2F1010838D41C
:1039980004F1880B1F320BEB820308F0010C002D99
:1039A80000F08C805BF82260AE4200F087801E1F1A
:1039B80008F1FF37B8F1000F23D0BCF1000F0BD08E
:1039C800002D00F0A28053F8043CAB4200F09D802B
:1039D800013F043E7B1C14D0B846E5B13768AF42BE
:1039E80019D008F1FF37A6F10408002D3FD056F88A
:1039F800046CAE423BD0A8F1040607F1FF38002F53
:103A0800EBD140F20002C0F20002002A40F0DA8056
:103A180007B0BDE8F08F6168CBEB0602A0184F1E17
:103A2800474550F8783C00F09280002240F8782C06
:103A3800002BD6D0D4F8881167680AFA08F0084233
:103A48003AD0D4F88C21104240F09780049856F868
:103A5800801C98476368BB428FD1D9F80010A142F7
:103A68008BD108F1FF37A6F10408002DBFD1636898
:103A7800CBEB0800591E2218B94252F8783C69D09D
:103A8800002642F8786C002BB5D0D4F88801666817
:103A98000AFA07F2024236D0D4F88C110A4270D0E2
:103AA80058F8800C98476368B3427FF466AFD9F83A
:103AB8000000A0429FD060E79847CBE76268CBEB55
:103AC8000300561E2118464551F8782C70D0002066
:103AD80041F8780C002A3FF46AAFD4F88801666888
:103AE8000AFA08F1014237D0D4F88C01014255D1C5
:103AF80053F8801C04980293CDF804C09047029BA9
:103B0800DDF804C02FE09847CDE76168CBEB0600ED
:103B18002218481EB84252F8783C4CD0002142F88E
:103B2800781C002B3FF454AFD4F88801D4F80480F3
:103B38000AFA07F2024229D19847636843457FF49D
:103B48001CAFD9F80000A0423FF442AF15E7C4F813
:103B580004806DE7676096E70293CDF804C090474C
:103B6800029BDDF804C06268B2427FF406AFD9F860
:103B78000010A1423FF41BAFFFE656F8800C9847AF
:103B880068E7049858F8801C98478CE7D4F88C119B
:103B98000A4212D056F8800C9847CEE753F8800CAA
:103BA8000293CDF804C09047029BDDF804C0DAE721
:103BB800C4F804808EE76760B3E7049856F8801C61
:103BC8009847BAE7616849B9236843B12046C9F8FC
:103BD8000030AFF30080D9F80040D3E62368A1464F
:103BE8001C46CFE6303C000801460020024603464A
:103BF800FFF79CBC49444C4500000000546D7220FE
:103C0800537663004C454431000000004C45443273
:103C1800000000004C4544330000000050425F742F
:103C280065737400430000003800002000000000A5
:103C3800F8B500BFF8BC08BC9E467047F8B500BF91
:083C4800F8BC08BC9E46704761
:083C50008CC5FF7F010000009C
:083C580055390008AD01000818
:043C600089010008CE
:103C640000000000FFFFFFFFAAAAAAAAF82B010088
:103C74000000000000000000010203040607080918
:103C8400007A030A00000000010203040102030495
:103C940006070809000000000000000024030020BB
:103CA4008C030020F403002000000000000000004A
:103CB4000000000000000000000000000000000000
:103CC4000000000000000000000000002C3C000880
:103CD40000000000000000000000000000000000E0
:103CE40000000000000000000000000000000000D0
:103CF40000000000000000000000000000000000C0
:103D040000000000000000000000000000000000AF
:103D1400000000000000000000000000000000009F
:103D2400000000000000000000000000000000008F
:103D3400000000000000000000000000000000007F
:103D440001000000000000000E33CDAB34126DE61C
:103D5400ECDE05000B000000000000000000000085
:103D6400000000000000000000000000000000004F
:103D7400000000000000000000000000000000003F
:103D8400000000000000000000000000000000002F
:103D9400000000000000000000000000000000001F
:0440C40038000020A0
:0440C80000000000F4
:04000005080034E1DA
:00000001FF
